:020000040800F2
:100000001811002045070008490500084B050008A5
:100010004F050008530500085705000800000000C0
:100020000000000000000000000000005B05000868
:100030005D050008000000005F050008610500087C
:100040005F0700085F0700085F0700085F070008F8
:100050005F0700085F0700085F0700085F070008E8
:100060005F0700085F0700085F0700085F070008D8
:100070005F0700085F0700085F0700085F070008C8
:100080005F0700085F0700085F0700085F070008B8
:100090005F0700085F0700085F0700085F070008A8
:1000A0005F0700085F0700085F0700085F07000898
:1000B0005F0700085F0700085F0700085F07000888
:1000C0005F0700085F0700085F0700085F07000878
:1000D0005F0700082D2600085F070008C5310008EB
:1000E0005F0700085F0700085F0700085F07000858
:1000F0005F0700085F0700085F0700085F07000848
:100100005F0700085F0700085F0700085F07000837
:100110005F0700085F0700085F070008D93700087D
:100120005F0700085F0700085F0700085F07000817
:1001300000F002F800F0B0F80AA090E8000C824449
:100140008344AAF10107DA4501D100F0A5F8AFF226
:10015000090EBAE80F0013F0010F18BFFB1A43F0A5
:10016000010318478C5C0000AC5C00000A444FF0AF
:10017000000C10F8013B13F0070408BF10F8014B06
:100180001D1108BF10F8015B641E05D010F8016B4B
:10019000641E01F8016BF9D113F0080F1EBF10F8AF
:1001A000014BAD1C0C1B09D16D1E58BF01F801CBD2
:1001B000FAD505E014F8016B01F8016B6D1EF9D555
:1001C0009142D6D37047000000230024002500266A
:1001D000103A28BF78C1FBD8520728BF30C148BFAA
:1001E0000B6070476E2904F0A980702903F03787EF
:1001F000662905F08381652905F08081672905F06E
:100200007D816129AFF3008003681B0A28BF41F09C
:100210008001692903F0AA86642903F0A78675295D
:1002200003F0A4866F2904F09F81782903F00387E7
:10023000E92904F03B81E42904F03881F52904F030
:100240003581EF2904F09C81F82903F002870368C7
:10025000DB0928BF41F08001632904F0AA807329DB
:1002600004F0AF80E32904F0EF83F32904F0F48372
:10027000002070471FB504F045FC04000020002159
:1002800005F026F9401C60600020002105F00AF905
:10029000E0601FBD10B510BD04F006FC1146FFF76D
:1002A000E9FF00F03CF804F0DDFC03B4FFF7F2FFD7
:1002B00003BC02F05DF9000010B5C821C80601F0CA
:1002C0009DFE10BD1CB58B49522002F0A5FC0446D2
:1002D00024B18849522002F09FFC0446F4B902245C
:1002E000854802F0C4FC0446C4B98348C0788249FA
:1002F0008978CDE900108048437802787FA185484D
:1003000003F0CEFD834984A002F0E1FF814982A081
:1003100003F0BAFD4FF4FA7002F0F7F81CBD00BF0D
:1003200002F0B6F802F01EF94FF4E13002F02FF9B6
:1003300002F0C4FE02F0C0F902F0E6FE02F0ACFBEF
:1003400077A003F0A1FD03F038FB4FF4E13002F099
:1003500068FF40F2CF2140F2E73003F052FA03F099
:1003600046F873A002F0B3FF002073490870734988
:100370000880C821C80601F041FEC821C80601F066
:100380003FFE59E06D48008800F40040A0B1012311
:10039000694A0021084603F02BFB6748007838289B
:1003A00000D1012464480078392800D102240020BB
:1003B0006149087061490880012C01D0022C0AD1E2
:1003C000012C04D16421080701F018FE03E0642128
:1003D000080701F015FE0421594800F034FB28B944
:1003E000012C01D0042C01D1A01CC4B20821544816
:1003F00000F029FB28B9022C01D0032C01D1A01C4C
:10040000C4B2042C08DD0024C821C80601F0F6FDA2
:10041000C821C80601F0F4FD4FF40051494800F02E
:1004200012FB08B903F0C9FAC82002F06EF8FFF712
:1004300049FF322002F069F8A4E72DE9FE410546A4
:100440000E46099C002047E0115CCF1701EB17779F
:100450003F110DF810701DF81010092906DD1DF868
:1004600010103731C9B20DF8101005E01DF810104A
:100470003031C9B20DF81010115CCF1701EB1777AE
:100480003F11A1EB0717FFB24FF0010C0CEB400C32
:100490000DF80C70012101EB40011DF80110092934
:1004A0000CDD012101EB40011DF801103731C9B20B
:1004B000012707EB40070DF807100BE0012101EBC6
:1004C00040011DF801103031C9B2012707EB400788
:1004D0000DF80710411CC8B20428B5DB00218DF8C7
:1004E0000810002001E0411CC8B20828FBDBBDE871
:1004F000FE810000000000200200002069443A252F
:100500003032782530327825303278253032783ADA
:10051000000000002005002025730D0A00000000E7
:100520000D0A637075206973204F4B0D0A0000009F
:1005300067756172640000000806002078000020E2
:100540000008014000100140704700BFFEE700BFF7
:10055000FEE700BFFEE700BFFEE770477047704749
:10056000704700000CB50020019000906C480068B6
:1005700040F480306A49086000BF6948006800F4B0
:10058000003000900198401C0190009818B9019823
:10059000B0F5A06FF1D16248006800F4003010B1EE
:1005A0000120009001E0002000900098012843D134
:1005B0005C48006840F010005A490860084600682E
:1005C00020F0030008600846006840F00200086060
:1005D00053484068524948600846406848600846A9
:1005E000406840F4806048600846406820F47C1011
:1005F00048600846406840F4E810486008460068D3
:1006000040F08070086000BF4548006800F000704E
:100610000028F9D04248406820F003004049486073
:100620000846406840F00200486000BF3C4840680F
:1006300000F00C000828F9D10CBD10B5FFF792FFAF
:1006400010BD10B53648006840F00100344908601C
:100650000846406834490840314948600846006807
:10066000324908402E4908600846006820F480207E
:1006700008600846406820F4FE0048604FF41F0000
:100680008860FFF7DAFF4FF000602949086010BD6D
:1006900010B5002100200022214B5B6803F00C0103
:1006A00021B1042906D0082928D107E0214B224C8A
:1006B000236027E01F4B204C236023E0184B5B682E
:1006C00003F47010164B5B6803F48032022303EBD3
:1006D000904022B9194B4343174C23600DE0104B57
:1006E0005B6803F4003323B1144B4343124C236083
:1006F00003E0104B4343104C236003E00D4B0E4CC2
:10070000236000BF00BF064B5B68C3F303130C4CB0
:10071000E15C094B1B68CB40074C236010BD000017
:1007200000100240002002400000FFF8FFFFF6FE2C
:1007300008ED00E000127A004400002000093D00AE
:10074000480000200948804709480047FEE7FEE7C7
:10075000FEE7FEE7FEE7FEE7FEE7FEE7FEE7FEE771
:1007600004480549054A064B704700004306000847
:1007700031010008180B002018110020180D00206E
:10078000180D002031490143314A1160704770B59E
:10079000002100230F22C47804B32D4C246804F4F4
:1007A000E064C4F5E064210AC1F10403CA4044785E
:1007B00004FA03F18478144021430901254C06789A
:1007C000A155047804F01F050124AC4005786D1193
:1007D000AD0005F1E025C5F8004109E0047804F01A
:1007E0001F050124AC401C4D0678761145F82640C3
:1007F00070BD1A4A0A400243154B1B1F1A6070470E
:1008000039B1134A121D12680243114B1B1D1A60A5
:1008100006E00F4A121D126882430D4B1B1D1A6021
:100820007047042808D14FF0E021096941F0040124
:100830004FF0E022116107E04FF0E021096921F05B
:1008400004014FF0E0221161704700000000FA053A
:100850000CED00E000E400E080E100E080FFFF1F1D
:1008600010B50446CC48844208D10121042000F090
:100870002DFB0021042000F029FB46E0C7488442FC
:1008800008D10121082000F021FB0021082000F000
:100890001DFB3AE0C248844208D10121102000F03B
:1008A00015FB0021102000F011FB2EE0BD48844212
:1008B00008D10121202000F009FB0021202000F0B8
:1008C00005FB22E0B848844208D10121402000F015
:1008D000FDFA0021402000F0F9FA16E0B348844206
:1008E00008D10121802000F0F1FA0021802000F0E1
:1008F000EDFA0AE0AE48844207D10121801500F0EC
:10090000E5FA0021A01500F0E1FA10BD10B50121B3
:10091000084600F0DBFA0021012000F0D7FA10BDF4
:100920002DE9F04102460025002600200023002486
:10093000002791F803C00CF00F0591F803C00CF0EC
:10094000100CBCF1000F03D091F802C04CEA050571
:1009500091F800C0BCF1000F31D0146800202BE0EA
:100960004FF0010C0CFA00F3B1F800C00CEA0306DA
:100970009E4220D183004FF00F0C0CFA03F7BC43CA
:1009800005FA03FC4CEA040491F803C0BCF1280FFB
:1009900006D14FF0010C0CFA00FCC2F814C00AE0BA
:1009A00091F803C0BCF1480F05D14FF0010C0CFACF
:1009B00000FCC2F810C0401C0828D1D31460B1F864
:1009C00000C0BCF1FF0F34DD546800202EE000F1C0
:1009D000080C4FF0010808FA0CF3B1F800C00CEA5B
:1009E00003069E4221D183004FF00F0C0CFA03F74F
:1009F000BC4305FA03FC4CEA040491F803C0BCF1C3
:100A0000280F05D100F1080C08FA0CF8C2F8148080
:100A100091F803C0BCF1480F07D100F1080C4FF06A
:100A2000010808FA0CF8C2F81080401C0828CED340
:100A30005460BDE8F0814FF6FF71018002218170A2
:100A40000421C17070470246002093680B400BB12F
:100A5000012000E0002070470146886880B270479E
:100A600002460020D3680B400BB1012000E00020BB
:100A700070470146C86880B27047016170474161A4
:100A800070470AB1016100E041617047C160704781
:100A90004FF480320A438261816182618269826996
:100AA000704702460020434B18684FF68073184089
:100AB00040EA021008433F4B186070473E49C86146
:100AC0007047F0B50A46002300240021002500F0FD
:100AD0000046B6F1004F02D1364EF16901E0354EC5
:100AE0007168C0F3034583B200F44016B6F5401FA9
:100AF00008D121F070612F4E766826F070662D4F78
:100B00007E6012E000F48016B6F5801F06D1032641
:100B100006FA05F4A14341F0706106E0460D360186
:100B200003FA06F6B14341F0706122B1460D360179
:100B300003FA06F6314300F00046B6F1004F02D149
:100B40001C4EF16101E01B4E7160F0BD30B500221A
:100B50008B071C0F0F2303FA04F2164B08338C107B
:100B600053F824309343134C08348D1044F8253047
:100B700023468C1053F824308C07240F00FA04F419
:100B800023430C4C08348D1044F8253030BD0A49FD
:100B9000DC3108607047000000080140000C014093
:100BA000001001400014014000180140001C0140E9
:100BB000002001400000014000002042DF480068A2
:100BC00040F00100DD49086008464068DC49084003
:100BD000DA49486008460068DA490840D7490860A1
:100BE0000846006820F4802008600846406820F429
:100BF000FE0048604FF41F0088607047CF490968C5
:100C000021F48031CD4A11601146096821F4802118
:100C10001160B0F5803F03D0B0F5802F0ED106E013
:100C2000C649096841F48031C44A116007E0C349EC
:100C3000096841F4A021C14A116000E000BF00BF73
:100C4000704710B501460022002300204A11012AF6
:100C500002D1BA4C236806E0022A02D1B74C236ABB
:100C600001E0B64C636A01F01F02012494401C406D
:100C70000CB1012000E0002010BD38B5002000902C
:100C80000024002500BF3120FFF7DBFF0546009858
:100C9000401C00900098B0F5A06F01D0002DF2D05C
:100CA0003120FFF7CEFF08B1012400E000242046E8
:100CB00038BD01460020A14A106820F0F80040EA43
:100CC000C10010607047A0490860704702460020CC
:100CD0009A4B586820F47C1042EA01031843974B62
:100CE0005860704798490866704701460020934A4B
:100CF000506820F003000843506070478F484068F8
:100D000000F00C007047014600208C4A506820F02B
:100D1000F00008435060704701460020874A506841
:100D200020F4E06008435060704701460020834A89
:100D3000506820F4605040EAC1005060704729B10B
:100D40007E4A527A02437D4B5A7204E07B4A527AC1
:100D500082437A4B5A7270477B49D831086070479A
:100D600001460020754A506820F440400843506016
:100D700070470021714A20321170704A82F82010A9
:100D8000012802D004280AD104E001216B4A203254
:100D9000117005E00521694A2032117000E000BFA2
:100DA00000BF70476949086070476449096A014398
:100DB000624A11627047654944390860704730B52E
:100DC00000210022002400235C4D6D6805F00C0119
:100DD00021B1042905D0082923D105E05C4D056027
:100DE00022E05B4D05601FE0544D6D6805F4701204
:100DF000524D6D6805F48034022505EB92421CB912
:100E0000544D554305600BE04C4D6D6805F40035BD
:100E10001DB1504D5543056002E04D4D55430560F1
:100E200002E04B4D056000BF00BF444D6D6805F00A
:100E3000F0010909484D6B5C0568DD4045603F4D98
:100E40006D6805F4E061090A434D6B5C4568DD405F
:100E500085603A4D6D6805F46051C90A3E4D6B5C82
:100E60004568DD40C560354D6D6805F44041890B2E
:100E70003A4D6B5CC568B5FBF3F5056130BD29B132
:100E80002E4A526902432D4B5A6104E02B4A5269A3
:100E900082432A4B5A61704729B1284A926902431A
:100EA000264B9A6104E0254A92698243234B9A615A
:100EB000704729B1214AD2690243204BDA6104E02C
:100EC0001E4AD26982431D4BDA61704729B11B4A21
:100ED000D2680243194BDA6004E0184AD2688243B0
:100EE000164BDA60704729B1144A12690243134B5A
:100EF0001A6104E0114A12698243104B1A6170476B
:100F000012494039086070470F49C86470470B495F
:100F1000C87170470948406A40F0807007494862CC
:100F2000704701460020054A92680A400AB1012034
:100F300000E00020704701498872704700100240AD
:100F40000000FFF8FFFFF6FE00004242800442422C
:100F500000127A0000093D005800002068000020BF
:100F600010B50446BE48844208D101218014FFF721
:100F7000ADFF0021A014FFF7A9FF16E0B948844295
:100F800008D101210014FFF7AEFF00212014FFF764
:100F9000AAFF0AE0B448844207D10121C013FFF739
:100FA000A2FF0021E013FFF79EFF10BD10B5002245
:100FB000028802F441520B884C8823438C882343D7
:100FC000CC8823430C8923434C8923438C892343B6
:100FD000CC8923431A430280838B4FF2FF74234052
:100FE00083830B8A038210BD2DE9F04F85B005463F
:100FF0000C464FF0000902274FF000084FF0010B9C
:101000000026B246A88B4FF240010840A883022078
:101010002884B5F81C90A068022801D100BF38E0F0
:10102000A08810B94FF0010B01E04FF0020B8D4882
:10103000854200D100E000BF6846FFF7C0FEDDF842
:1010400000A0E088B0F5007F0AD14FEA1A2000EB3B
:1010500080004000A168B0FBF1F0401D86B20BE0BB
:101060004FEA4B10BAFBF0F000EB80004000A168A3
:10107000B0FBF1F0401D86B20A20B6FBF0F606F098
:101080000108A6EB0800C0F34F074FF6FF7000EA17
:101090000828022F01DBFF2F02DD02274FF0000896
:1010A000E08840EA080038432884A088A1890843E2
:1010B000618808432188084340F4006040EA090938
:1010C000A5F81C9005B0BDE8F08F0021018041809B
:1010D0008180C180018141818181C181072101829B
:1010E00070470021018041808180C18002218160A0
:1010F00000218181704721B1028842F040020280C4
:1011000004E002884FF6BF731A400280704721B195
:10111000828B42F48062828304E0828B4FF6FF333D
:101120001A408283704730B5002400230C1101253A
:10113000A540ABB21AB185881D43858002E0858841
:101140009D43858030BD1AB183880B43838002E0C4
:1011500083888B43838070478181704701468889EB
:1011600070474FF6FF62914204D0028842F48072C9
:10117000028004E002884FF6FF631A400280704745
:1011800021B1828842F00402828004E082884FF616
:10119000FB731A408280704702884FF2FF731A4037
:1011A000028002880A4302807047018841F480511E
:1011B0000180704721B1028842F40052028004E0AD
:1011C00002884DF6FF731A400280704702460020E5
:1011D000012901D0108B00E0908A70470146088AEF
:1011E0007047B1F5804F04D1028842F480420280FA
:1011F00004E002884BF6FF731A40028070470246F3
:10120000002013890B400BB1012000E00020704743
:10121000CA4302817047F0B5024600200024002333
:10122000002501F00F070126BE40B4B20B110126C4
:101230009E40B3B2968806EA03051689264016B189
:101240000DB1012000E00020F0BD10B5002201F03A
:101250000F040123A3409AB2D343038110BD0000C1
:101260000030014000380040003C004010B504460A
:10127000FE48844208D10121C014FFF727FE002157
:10128000E014FFF723FEC4E0B4F1804F08D1012140
:101290000846FFF728FE00210120FFF724FEB8E0F2
:1012A000F348844208D101210220FFF71CFE0021EF
:1012B0000220FFF718FEACE0EE48844208D101217D
:1012C0000420FFF710FE00210420FFF70CFEA0E031
:1012D000E948844208D101210820FFF704FE0021DB
:1012E0000820FFF700FE94E0E448844208D1012181
:1012F0001020FFF7F8FD00211020FFF7F4FD88E033
:10130000DF48844208D101212020FFF7ECFD0021B5
:101310002020FFF7E8FD7CE0DA48844208D1012173
:101320004014FFF7D3FD00216014FFF7CFFD70E0FC
:10133000D548844209D10121C804FFF7C7FD002127
:101340004FF40020FFF7C2FD63E0D048844209D18A
:1013500001210805FFF7BAFD00214FF48010FFF7C7
:10136000B5FD56E0CA48844209D101214805FFF77E
:10137000ADFD00214FF40010FFF7A8FD49E0C5487E
:10138000844208D101214020FFF7ADFD002140201B
:10139000FFF7A9FD3DE0C048844208D1012180202B
:1013A000FFF7A1FD00218020FFF79DFD31E0BB4844
:1013B000844208D101218015FFF795FD0021A01579
:1013C000FFF791FD25E0B648844209D101210804C8
:1013D000FFF77CFD00214FF48030FFF777FD18E028
:1013E000B048844209D101214804FFF76FFD002174
:1013F0004FF40030FFF76AFD0BE0AB48844208D1A0
:1014000001218804FFF762FD00214FF48020FFF7DF
:101410005DFD10BD00220288944B98420ED0994B7E
:1014200098420BD0B0F1804F08D0914B984205D034
:10143000904B984202D0904B984204D14FF68F7354
:101440001A404B881A438D4B984207D08C4B9842D8
:1014500004D04FF6FF431A40CB881A4302808B8892
:1014600083850B880385814B98420BD0854B98422E
:1014700008D08B4B984205D08A4B984202D08A4BB9
:10148000984201D10B7A038601238382704770B59D
:10149000002400220023058C4FF6FE76354005849B
:1014A000028C8388048B4FF68F752C40B51E2C4020
:1014B0000D882C43751E2A400D892A434D882A43E6
:1014C0006A4DA8420BD06F4DA84208D0744DA84277
:1014D00005D0744DA84202D0734DA84213D14FF6E7
:1014E000F7752A404D892A434FF6FB752A408D88AF
:1014F0002A434FF6FF652B404FF6FF552B408D8951
:101500002B43CD892B4383800483CD888586028439
:1015100070BD70B5002400220023058C4FF6EF76D5
:1015200035400584028C8388048B48F6FF752C4077
:101530004FF6FF452C400D884FF6FF7606EA05254D
:101540002C434FF6DF752A400D8906EA05152A431C
:101550004D8806EA05152A43444DA84202D0494D5C
:10156000A8421DD14FF67F752A404D894FF6FF7670
:1015700006EA05152A434FF6BF752A408D8806EA0C
:1015800005152A434FF6FF352B404FF2FF752B40D0
:101590008D8906EA85052B43CD8906EA85052B430F
:1015A00083800483CD880587028470BD70B50024D4
:1015B00000220023058C4FF6FF6635400584028C1F
:1015C0008388848B4FF68F752C404FF6FC752C402A
:1015D0000D882C434FF6FF552A400D894FF6FF76B4
:1015E00006EA05252A434D8806EA05252A431F4DAC
:1015F000A84202D0234DA8421DD14FF2FF752A40C8
:101600004D894FF6FF7606EA05252A434FF6FF354A
:101610002A408D8806EA05252A434EF6FF752B40A1
:101620004DF6FF752B408D8906EA05152B43CD89B4
:1016300006EA05152B4383808483CD888587028441
:1016400070BD70B5002200230024058C4EF6FF7695
:1016500035400584038C8488828B48F6FF752A40C8
:101660004FF6FF452A400D8820E00000002C014085
:101670000004004000080040000C00400010004042
:101680000014004000340140004C01400050014073
:101690000054014000180040001C004000200040A1
:1016A0000040014000440140004801404FF6FF76F1
:1016B00006EA05252A434DF6FF752B400D8906EAFB
:1016C00005352B434D8806EA05352B43FA4DA842D4
:1016D00002D0FA4DA84208D14BF6FF752C408D89F7
:1016E0004FF6FF7606EA85152C4384808283CD88E9
:1016F000A0F84050038470BD828B4FF2FF331A4034
:101700008283828B4FF6FF7303EA01231A4382839D
:101710007047F0B50C461546002200210026078CC4
:101720004EF6FF7C07EA0C070784828B018C4FF68C
:10173000FF7707EA043640F6FF473A404FF6FF7757
:1017400007EA05273A434FF6FF7707EA03373A439C
:10175000D94FB8420ED0D94FB8420BD0B0F1804F1C
:1017600008D0D74FB84205D0D64FB84202D0D64F96
:10177000B84206D14DF6FF77394046F480573943D9
:1017800005E047F6FF57394044F4805739438283D8
:101790000184F0BD828B4FF6F3731A408283828BF3
:1017A0000A4382837047F0B50C461546002200219B
:1017B0000026078C4FF6FF6C07EA0C070784828B24
:1017C000018C4FF6FF7707EA04264FF60C773A4074
:1017D0004FF6FF7707EA03172F433A43B64FB84255
:1017E0000ED0B64FB8420BD0B0F1804F08D0B44FF6
:1017F000B84205D0B34FB84202D0B34FB84206D179
:101800004FF6FF57394046F48077394305E04FF2F1
:10181000FF57394044F48077394382830184F0BD17
:10182000028B4FF2FF331A400283028B4FF6FF7395
:1018300003EA01231A4302837047F0B50C461546AC
:10184000002200210026078C4FF6EF7C07EA0C07E8
:101850000784028B018C4FF6FF7707EA041640F6E7
:10186000FF473A404FF6FF7707EA03373A434FF610
:10187000FF7707EA05273A438F4FB8420ED08F4FC4
:10188000B8420BD0B0F1804F08D08D4FB84205D090
:101890008C4FB84202D08C4FB84206D14FF6DF775A
:1018A000394046F01007394305E04FF65F7739407D
:1018B00044F01007394302830184F0BD028B4FF6D8
:1018C000F3731A400283028B0A4302837047F0B518
:1018D0000C46154600220021068C4FF6FE773E404E
:1018E0000684028B018C4FF60C7632407E1C06EA91
:1018F00003162E433243704EB0420ED06F4EB042AC
:101900000BD0B0F1804F08D06D4EB04205D06D4E77
:10191000B04202D06C4EB04206D14FF6FD76314057
:1019200044F00106314305E04FF6F576314044F0CE
:101930000106314302830184F0BD70B505460C46B3
:101940005D4885420ED05D4885420BD0B5F1804F91
:1019500008D05B48854205D05A48854202D05A4893
:10196000854200D100E000BF208850B92389A288B9
:1019700061882846FFF7ABFFE1882846FFF79EFF06
:1019800025E0208804280AD12389A2886188284676
:10199000FFF753FFE1882846FFF742FF17E0208852
:1019A00008280AD12389A28861882846FFF7FBFE10
:1019B000E1882846FFF7EEFE09E02389A2886188C6
:1019C0002846FFF7A6FEE1882846FFF795FE70BD82
:1019D0002DE9F04105460C4600260127608808B92C
:1019E000022600E00026A088012801D1022700E09D
:1019F00001272088A0B92389A28861882846FFF79B
:101A000066FFE1882846FFF759FF23893A463146A9
:101A10002846FFF712FFE1882846FFF701FF13E091
:101A20002389A28861882846FFF707FFE1882846B6
:101A3000FFF7F6FE23893A4631462846FFF747FF6F
:101A4000E1882846FFF73AFFBDE8F0810A884B8815
:101A50001A438B881A43CB881A430B891A434B8944
:101A60001A438B891A43A0F8442070474FF6FF7140
:101A7000818000210180C180418001727047002176
:101A8000018041808180C180018141818181C1814A
:101A90007047002101804180012181800021C180A7
:101AA000018170470021018041808180C1800181D6
:101AB0004181818170470000002C014000340140C9
:101AC0000004004000080040000C004021B10288E2
:101AD00042F00102028004E002884FF6FE731A40D1
:101AE0000280704731B1B0F8442042F40042A0F8BF
:101AF000442005E0B0F84420C2F30E02A0F84420D0
:101B000070471AB183890B43838102E083898B4339
:101B1000838170478182704741EA0203A0F8483010
:101B200070471AB183890B43838102E083898B4319
:101B30008381704701894FF6F87211400181704727
:101B40000A46002101894FF68F7319401143018124
:101B5000704730B504460D4629462046FFF7F0FF92
:101B6000208940F00700208130BD2DE9F041044676
:101B70000D4616461F46602D06D13B4601223146D2
:101B80002046FFF75AFE05E03B460122314620463B
:101B9000FFF79DFE29462046FFF7D2FF208940F03F
:101BA00007002081BDE8F08130B50C460021018995
:101BB000C9B24FF6FF7505EA0325154325432943AE
:101BC000018130BD2DE9F04105460E461746984685
:101BD000002443463A4631462846FFF7E5FF2C8964
:101BE0004FF6F870044044F007044FF68F7004403D
:101BF00044F070042C81BDE8F081F0B504460D4638
:101C000016461F463B46324629462046FFF7CCFF84
:101C1000208940F480402081F0BD01858282704798
:101C20000A46002101884FF68F7319401143018045
:101C30007047F0B50C4615461E46002100220023D1
:101C40000189028B038C4FF6F877394021434FF618
:101C5000FC473A4040F201173A434FF6DD773B40EC
:101C60004FF6FF7707EA06172F433B4301810283B4
:101C70000384F0BD0A460021018B4FF68F73194093
:101C80001143018370470A460021018B48F6FF7318
:101C900019404FF6FF7303EA02231943018370478B
:101CA0000A460021818B4FF68F73194011438183BF
:101CB00070470A460021818B48F6FF7319404FF6A2
:101CC000FF7303EA022319438183704721B102881D
:101CD00042F08002028004E002884FF67F731A40CF
:101CE0000280704721B1828842F00402828004E0C1
:101CF00082884FF6FB731A408280704721B1828838
:101D000042F00802828004E082884FF6F7731A409E
:101D10008280704721B1828842F00102828004E013
:101D200082884FF6FE731A40828070470A4600216F
:101D3000018B4FF6F77319401143018370470A4630
:101D40000021018B4FF2FF7319404FF6FF7303EA36
:101D500002231943018370470A460021818B4FF605
:101D6000F77319401143818370470A460021818B24
:101D70004FF2FF7319404FF6FF7303EA0223194332
:101D8000818370470A460021018B4FF6FB7319408F
:101D90001143018370470A460021018B4FF6FF3340
:101DA00019404FF6FF7303EA02231943018370477A
:101DB0000A460021818B4FF6FB7319401143818342
:101DC00070470A460021818B4FF6FF3319404FF6CA
:101DD000FF7303EA02231943818370470A460021F7
:101DE000018B4FF67F7319401143018370470A46F8
:101DF0000021018BC1F30E014FF6FF7303EA0223AA
:101E00001943018370470A460021818B4FF67F7387
:101E100019401143818370470A460021818BC1F329
:101E20000E014FF6FF7303EA0223194381837047C3
:101E30000A460021018C4FF6FD73194011430184BD
:101E400070470A460021018C4FF6F7731940114381
:101E5000018470470A460021018C4FF6DF73194058
:101E60004FF6FF7303EA02131943018470470A46D1
:101E70000021018C4FF67F7319404FF6FF7303EA80
:101E800002131943018470470A460021018C4FF662
:101E9000FF5319404FF6FF7303EA022319430184ED
:101EA00070470A460021018C4FF2FF7319404FF62C
:101EB000FF7303EA02231943018470470A46002195
:101EC000018C4DF6FF7319404FF6FF7303EA02339E
:101ED00019430184704730B5002301248C40A3B21C
:101EE000048C9C430484048C02FA01F5ADB22C43AB
:101EF000048430BD30B5002304248C40A3B2048C8C
:101F00009C430484048C02FA01F5ADB22C43048492
:101F100030BD70B503460020002418461830012556
:101F20008D40ACB21D8CA5431D8409B1082909D18F
:101F300000EB6100056825F0700505600568154334
:101F400005600EE00D1FC5F34E052844056825F415
:101F5000E045056005684FF6FF7606EA0226354340
:101F6000056070BD21B1028842F00202028004E0E7
:101F700002884FF6FD731A400280704721B1028833
:101F800042F00402028004E002884FF6FB731A401C
:101F90000280704721B1828842F08002828004E092
:101FA00082884FF67F731A408280704702884FF60E
:101FB000F7731A40028002880A43028070478288C1
:101FC0004FF68F731A40828082880A43828070475E
:101FD00002894FF6F8731A40028102890A4302818E
:101FE000704702894FF67F731A40028102890A43C3
:101FF0000281704781847047818570478186704770
:102000000187704781877047A0F8401070470288A9
:102010004FF6FF431A40028002880A43028070474D
:102020000146888E70470146088F70470146888FA9
:1020300070470146B1F8400070470146888C7047F0
:102040000146088D704702460020138A0B400BB1F1
:10205000012000E000207047CA430282704730B57B
:102060000246002000230024158A05EA0103958911
:1020700005EA010413B10CB1012000E0002030BDDD
:10208000CA4302827047000010B50446FB488442F0
:1020900009D101218803FEF719FF00214FF4804088
:1020A000FEF714FF32E0F648844209D101214804CA
:1020B000FEF719FF00214FF40030FEF714FF25E072
:1020C000F048844209D101218804FEF70CFF002169
:1020D0004FF48020FEF707FF18E0EB48844209D157
:1020E0000121C804FEF7FFFE00214FF40020FEF797
:1020F000FAFE0BE0E548844208D101210805FEF70D
:10210000F2FE00214FF48010FEF7EDFE10BD2DE928
:10211000F04786B005460E460024A24600BFA14601
:102120000027B08900B100BF2F462C8A4CF6FF7003
:102130000440F08804432C82AC894EF6F31004402E
:10214000B08831890843718908430443AC81AC8A63
:102150004FF6FF400440B0890443AC8201A8FEF76B
:102160002EFEC648874202D1DDF810A001E0DDF85E
:102170000CA0A88900F4004040B10AEBCA0000EBB3
:102180000A1031684900B0FBF1F807E00AEBCA0019
:1021900000EB0A1031688900B0FBF1F86420B8FB4D
:1021A000F0F004012009642101FB1089A88900F4E2
:1021B000004040B1322000EBC900B0FBF1F000F06C
:1021C0000700044308E0322000EB09106421B0FB53
:1021D000F1F000F00F0004432C8106B0BDE8F08759
:1021E0004FF41651016000218180C18001810C21D2
:1021F000418100218181704710B502460020108A7C
:102200004FF2FF0318400B884C8823438C882343EC
:10221000CC8823431843108210BD002101804180E7
:102220008180C180704721B1828942F4005282814D
:1022300004E082894DF6FF731A4082817047F0B541
:102240000346002400260025002040F66A17B94204
:1022500000D100BF1846C1F3421401F01F06012748
:1022600007FA06F5012C01D10C3004E0022C01D153
:10227000103000E014301AB107682F43076002E005
:102280000768AF430760F0BD1AB1838A0B438382AE
:1022900002E0838A8B4383827047028A4FF6F07391
:1022A0001A400282028A0A430282704782894FF2F0
:1022B000FF731A40828182890A438281704721B16B
:1022C000828942F00202828104E082894FF6FD7326
:1022D0001A4082817047028A4FF6DF731A400282E9
:1022E000028A0A430282704721B1028A42F4804284
:1022F000028204E0028A4BF6FF731A4002827047A2
:10230000C1F308028280704701468888C0F3080044
:102310007047818941F0010181817047028BD2B2FF
:102320000283028B42EA012202837047028B02F48D
:102330007F420283028B0A430283704721B1828A63
:1023400042F02002828204E0828A4FF6DF731A4054
:102350008282704721B1828A42F01002828204E0B8
:10236000828A4FF6EF731A408282704721B1828AC7
:1023700042F00802828204E0828A4FF6F7731A4024
:102380008282704721B1828942F40042828103E057
:102390008289C2F30E028281704721B1828A42F49F
:1023A0000062828204E0828A4FF2FF731A408282C6
:1023B0007047828A4FF6FB731A408282828A0A43F0
:1023C0008282704721B1828A42F00202828204E056
:1023D000828A4FF6FD731A408282704702460020BF
:1023E000B1F5007F00D100BF13880B400BB1012075
:1023F00000E00020704701F40072B2F5007F00D1C8
:1024000000BFCA430280704770B502460024002313
:102410000025002040F66A16B14200D100BFC1F38A
:10242000421501F01F03012606FA03F3012D02D124
:102430009689334006E0022D02D1168A334001E02E
:10244000968A33400C12012606FA04F416883440AA
:1024500013B10CB1012000E0002070BD10B50022C6
:10246000002340F66A14A14200D100BF0A120124E1
:102470009440A3B2DC43048010BD0000003801404A
:102480000044004000480040004C00400050004024
:1024900010B56FF00400FEF7C4F92E4800682E490D
:1024A000B0FBF1F02D4908700846007800EB4001C0
:1024B000C1EBC0104FF6FF7101EAC0002849088047
:1024C00010BD0146254A12784A434FF0E0235A6175
:1024D00000229A611A46126942F001021A6100BF95
:1024E0004FF0E022106900F001021AB100F48032CE
:1024F000002AF5D04FF0E022126922F001024FF0DD
:10250000E0231A6100229A6170470146144A12883A
:102510004A434FF0E0235A6100229A611A46126939
:1025200042F001021A6100BF4FF0E022106900F092
:1025300001021AB100F48032002AF5D04FF0E022F7
:10254000126922F001024FF0E0231A6100229A6121
:10255000704700004400002000127A006C00002048
:102560006E00002010B54FF4A060FEF70BF910BD0F
:10257000014600BF704700BF4B4A128802F040027C
:10258000002AF9D0C2B2484B1B1D1A80704710B503
:1025900086B00446012144F20400FEF77DFC424867
:1025A000FFF772FD4FF40070ADF8140003208DF8B2
:1025B000160018208DF8170005A93C48FEF7B0F961
:1025C0004FF48060ADF8140004208DF8170005A9C1
:1025D0003648FEF7A5F925208DF8000003208DF878
:1025E00001008DF8020001208DF803006846FEF717
:1025F000CEF801940020ADF80800ADF80A00ADF85F
:102600000C00ADF810000C20ADF80E0001A9264812
:10261000FFF77DFD012240F225512348FFF70FFE11
:1026200001212148FFF7FFFD06B010BD10B540F2B3
:1026300025511D48FFF7E8FE10B31B48FFF764FE65
:10264000C4B21B48008800F40040C8B9184800888C
:1026500000F4804060B10A2C03D0002014490880A7
:1026600020E01348008840F400401149088019E038
:102670000D2C06D10E48008840F480400C4908809B
:1026800010E00B480088C0F30D000A490C540848BC
:102690000088401C0649088008460088C72801DDDC
:1026A0000020088010BD00000038014000080140F3
:1026B000740000204005002008B501211420FEF719
:1026C000EBFB42F21400ADF8000004208DF803008B
:1026D00069463748FEF724F90C20ADF800000420C5
:1026E0008DF8030069463348FEF71AF908BD10B5A6
:1026F000044614B10120304908702F4800780028A2
:1027000039D004212A48FEF79EF980B108212948D2
:10271000FEF799F958B14FF400512548FEF793F9A7
:1027200028B104212348FEF78EF9012823D10A207D
:10273000FFF7EBFE00202049087004211C48FEF73B
:1027400082F908B9012010BD08211A48FEF77BF96B
:1027500008B90220F7E74FF400511548FEF773F966
:1027600008B90320EFE704211248FEF76CF90128AD
:102770001BD10420E7E704210D48FEF764F9012886
:1027800013D108210B48FEF75EF901280DD1410352
:102790000748FEF758F9012807D104210548FEF73C
:1027A00052F910B90120044908700020CBE700005D
:1027B000001001400008014076000020002103E0E5
:1027C00000BF00BF00BF491C8142F9D370470146DA
:1027D00000BFFD48008800F002000028F9D0FA4848
:1027E000001D018000BFF848008800F001000028AB
:1027F000F9D0F548001D0088C0B2704770B5054695
:10280000002405E0601CC4B2C82C01DD002070BDAE
:102810000221ED480838FEF7F2FC0028F2D02946E4
:10282000E9480838FEF798FC002405E0601CC4B2B3
:10283000C82C01DD0020EAE70121E3480838FEF753
:10284000DEFC0028F2D0E0480838FEF787FCC0B272
:10285000DDE710B50446DC48083800884FF6C7713C
:102860000840D94908390880084600882043088074
:102870000121D5480838FEF73EFC10BD00B585B0F3
:1028800001210820FEF708FB01218803FEF711FB58
:10289000CE480068C0F31300CC49086008460068C1
:1028A000CB490843C9490860081F006820F0FF00B1
:1028B000091F08600846006840F0330008600020E7
:1028C000ADF800004FF48270ADF802000020ADF8C2
:1028D0000400ADF80600ADF808004815ADF80A0090
:1028E0003820ADF80C000020ADF80E000720ADF840
:1028F00010006946B4480838FEF758FB0121B24879
:102900000838FEF7F8FB05B000BD10B502460B46CF
:102910000120AE49103108607E2000EA42042046C2
:10292000FFF755FF1846FFF752FF0120A7490C316A
:10293000086010BD10B5024600240120A3491031E3
:1029400008607E2000EA420040F080031846FFF74E
:102950003EFF0020FFF73BFF044601209B490C315E
:102960000860204610BD70B505460C460026284676
:10297000FFF7E0FF064646EA04012846FFF7C5FFD9
:1029800070BD10B51420FFF7D5FF044604F0030016
:1029900018B903211420FFF7E6FF10BD70B50546F6
:1029A0000C4600262846FFF7C5FF064626EA040126
:1029B0002846FFF7AAFF70BD10B50446412C26D16A
:1029C00008210846FFF7EAFF3D211120FFF79DFF90
:1029D00086211720FFF799FF7F212620FFF795FF1B
:1029E0001E212D20FFF791FF00212C20FFF78DFFE6
:1029F0008D212A20FFF789FF3E212B20FFF785FF3D
:102A00004FF47A70FFF7DAFEFFF7BBFF01E0012019
:102A100010BD0020FCE700B503211420FFF7BEFF26
:102A200000BD00B5022069490C3108600A20FFF79B
:102A3000C5FE02206549103108600A20FFF7BEFE7E
:102A4000022062490C3108600A20FFF7B7FE0F210F
:102A50000120FFF75AFF0F210120FFF756FF0A2040
:102A6000FFF7ACFE3D211120FFF74FFF1E212D2067
:102A7000FFF74BFF00212C20FFF747FF8D212A2075
:102A8000FFF743FF3E212B20FFF73FFF402115209A
:102A9000FFF73BFF002000BD10B5FFF7EFFEFFF78B
:102AA000C0FFFFF7B8FF0220FFF72FFDFFF769FF18
:102AB0004120FFF781FF10BD10B5FFF7B2FFFFF710
:102AC000AAFF0220FFF721FDFFF75BFF10BD2DE9F4
:102AD000FE4F0646884691469A46DDF830B0022001
:102AE00002900020019000900C2E06D00E2E09D1ED
:102AF000122001901020009005E0772001903020F6
:102B0000009000E000BF00BF019840F0800102206B
:102B1000FFF7FBFE80210420FFF740FF002101208A
:102B2000FFF7F3FE80210A20FFF71DFF002506E0D6
:102B300018F805100920FFF7E8FE681C85B24D451E
:102B4000F6DB31460120FFF7E0FE0C2E03D1802199
:102B50000D20FFF708FF4FF4FA6500BF0420FFF7D0
:102B6000E9FE0446681E85B235B104F0010018B9CB
:102B7000009820400028F1D080210D20FFF70EFFA3
:102B8000002D3ED00620FFF7D5FE00F01B00D0B987
:102B9000002002900198204000F0010008B10120BF
:102BA00002900C2E2DD10A20FFF7C4FE04460C2003
:102BB000FFF7C0FE00F0070767B1601E07EBC0001B
:102BC0008BF800000AE01AE008380040040C0140CD
:102BD0000000B0B8E006000E8BF8000004B9012434
:102BE000122C00DD1224002506E00920FFF7A2FECA
:102BF0000AF80500681C85B2A542F6DB01E0022058
:102C0000029080210C20FFF7AEFE00210120FFF78B
:102C10007CFE0298BDE8FE8F70B587B005460C4675
:102C200008210846FFF7BAFE07210D20FFF76DFEC9
:102C300003211420FFF797FE8DF8045006A801AB7E
:102C4000012201A900900C20FFF741FF064656B96A
:102C50009DF81800102806D19DF8040020709DF8FA
:102C60000500607000E00226304607B070BDF0B588
:102C700087B00546002708210846FFF78FFE002190
:102C80000D20FFF742FE80210E20FFF787FE9320E4
:102C90008DF8040020208DF8050006A801AB022263
:102CA00001A900900C20FFF712FF064686B9002408
:102CB00007E001A8005D285501A8005D4740601CA1
:102CC000C4B2042CF5DB01A8005DB84200D0022696
:102CD00080210E20FFF747FE304607B0F0BD2DE9FA
:102CE000F04107468846154604210520FFF756FEA9
:102CF00000210120FFF709FE80210A20FFF733FEA3
:102D0000002405E0395D0920FFF7FFFD601CC4B217
:102D10004445F7DB03210120FFF7F7FDFF2400BF47
:102D20000520FFF707FE0646601EC4B21CB106F080
:102D300004000028F4D02220FFF7FCFD2870212099
:102D4000FFF7F8FD6870BDE8F08170B587B0054603
:102D500093208DF8040070208DF8050000208DF878
:102D60000A0000240BE0295D01AAA01C11549DF863
:102D70000A00295D48408DF80A00601CC4B2042C8A
:102D8000F1DB0DF10B02072101A8FFF7A8FF0821D5
:102D90000846FFF703FE06A801AB092201A900902F
:102DA0000C20FFF794FE06462EB99DF8180018284F
:102DB00001D1002600E00226304607B070BD2DE9A3
:102DC000F04187B004460D4616461F468DF8044074
:102DD0008DF805503068CDF80600B088ADF80A00CF
:102DE0003868039006A801AB0C2201A900900E20C0
:102DF000FFF76DFE8046B8F1000F05D10820FFF700
:102E000099FD00F0080008B94FF00208404607B0ED
:102E1000BDE8F081F0B587B005460E4630208DF84C
:102E200004008DF805500DF10602022101A8FFF7FC
:102E300056FF06A801AB042201A900900C20FFF761
:102E400046FE07466FB99DF81800902809D1002466
:102E500004E001A8005D3055601CC4B2102CF8DB02
:102E600000E00227384607B0F0BDF0B587B006464F
:102E70000F46A0208DF804008DF805600DF10602C4
:102E8000022101A8FFF72BFF06A801AB042201A92C
:102E900000900C20FFF71BFE05464DB99DF8180069
:102EA000042805D19DF8040000F00F000A2800D086
:102EB000022515BB002404E0385D01A90855601CFB
:102EC000C4B2102CF8DB05AA102101A8FFF707FFF8
:102ED00006A801AB122201A900900C20FFF7F7FD14
:102EE00005464DB99DF81800042805D19DF8040049
:102EF00000F00F000A2800D00225284607B0F0BDD8
:102F000010B587B050208DF8040000208DF8050022
:102F10000DF10602022101A8FFF7E1FE06A801ABB0
:102F2000042201A900900C20FFF7D1FD04460020E7
:102F300007B010BDF0B587B006460D4617468DF8B0
:102F400004608DF805500DF10602022101A8FFF77B
:102F5000C6FE06A801AB042201A900900C20FFF7D1
:102F6000B6FD04464CB99DF81800042805D19DF81B
:102F7000040000F00F000A2800D00224A4B9386829
:102F8000019002AA042101A8FFF7A9FE00200690E3
:102F900006A801AB062201A900900C20FFF797FDBF
:102FA0000446022C00D00024FCB9B0208DF80400A7
:102FB0008DF805500DF10602022101A8FFF78FFEE2
:102FC00006A801AB042201A900900C20FFF77FFDA9
:102FD00004464CB99DF81800042805D19DF804005A
:102FE00000F00F000A2800D00224204607B0F0BDF0
:102FF00070B587B005460E46C2208DF804008DF8E6
:1030000005500DF10602022101A8FFF768FE06A88F
:1030100001AB042201A900900C20FFF758FD0446E3
:103020004CB99DF81800042805D19DF8040000F063
:103030000F000A2800D00224CCB900208DF804002B
:103040008DF805008DF806008DF8070002AA04210E
:1030500001A8FFF744FE06A801AB062201A90090D3
:103060000C20FFF734FD0446022C00D0002414B1DC
:10307000022007B070BDB0208DF804008DF8056007
:103080000DF10602022101A8FFF729FE06A801ABF7
:10309000042201A900900C20FFF719FD04464CB949
:1030A0009DF81800042805D19DF8040000F00F00D9
:1030B0000A2800D002242046DBE7000008B50121E1
:1030C0004820FDF7E9FE2020ADF8000010208DF823
:1030D000030003208DF8020069460948FDF720FC33
:1030E00020210748FDF7C9FC2020ADF80000694603
:1030F0000448FDF715FC20210248FDF7BEFC08BD81
:10310000000C01400018014000B589B001210846BB
:10311000FDF7CFFE01210420FDF7BEFE0320ADF830
:10312000200018208DF8230003208DF8220008A924
:103130002348FDF7F5FB40F2CF70ADF8080040F2F0
:10314000CF20ADF804000020ADF80A00ADF806006D
:1031500001A94FF08040FEF75DF96020ADF8100046
:103160000120ADF812000020ADF816004FF4807079
:10317000ADF81C000020ADF8180004A94FF0804005
:10318000FEF785F90821C806FEF7D0FD0020ADF84E
:10319000180004A94FF08040FEF7BBF90821C806CB
:1031A000FEF7CDFD01218807FEF79CFC0121880771
:1031B000FEF78CFD01218807FEF788FC09B000BDF1
:1031C0000008014010B540F225515348FFF71CF9A3
:1031D000F8B15148FFF798F8C4B25048008800F49D
:1031E0000040B0B94D480088B0F5167F12DA0021D2
:1031F0004B48FEF7FFFE4948008818B901214848AE
:10320000FEF764FC45490888411C444A1180454941
:103210000C5405E04148008840F400403F490880D4
:1032200010BD10B586B0044601210820FDF734FE1C
:1032300001218804FDF73DFE3748FEF725FF4FF4D6
:103240008060ADF8100003208DF8120018208DF872
:10325000130004A93448FDF763FB4FF40060ADF898
:10326000100004208DF8130004A92F48FDF758FB27
:1032700000940020ADF80400ADF80600ADF8080099
:10328000ADF80C000C20ADF80A0069462248FEF7A4
:103290003EFF01212048FEF7C6FF012240F22551E2
:1032A0001D48FEF7CCFF27208DF8140002208DF872
:1032B000150003208DF8160001208DF8170005A8D1
:1032C000FDF765FA00201549088006B010BD0FB45F
:1032D00038B505A800901548009A049900F0C2FD81
:1032E00000200090114800F09BFF85B200240DE003
:1032F00000BF40210848FFF771F80028F9D00B48BB
:10330000015D0548FEF7FCFF601C84B2AC42EFDBB8
:1033100038BC5DF814FB0000004800407800002035
:103320000014004008060020000C01406008002046
:1033300000B5B3B0534854A1026801A800F0B0FD35
:1033400064225CA101A800F079F94FF47A70FFF7CC
:10335000DCF84FF47A70FFF7D8F84FF47A70FFF783
:10336000D4F84FF47A70FFF7D0F846480068401C54
:103370004449086033B000BD10B54FA0FFF7A7FF68
:103380003220FFF7C2F84DA0FFF7A1FF1420FFF78E
:10339000BCF84CA0FFF79BFF1420FFF7B6F84CA039
:1033A000FFF795FF1420FFF7B0F853A0FFF78FFF4A
:1033B000C820FFF7AAF857A0FFF789FF1420FFF7EE
:1033C000A4F857A0FFF783FFC820FFF79EF85EA080
:1033D000FFF77DFF1420FFF798F85FA0FFF777FF56
:1033E0001420FFF792F800205E49088010BD10B548
:1033F0000FE03220FFF789F800F04AF90F20FFF7BD
:1034000084F8C8222BA158A000F0E6F83220FFF77C
:103410007CF8C82227A128A000F0DEF80028E8D117
:1034200000BF142223A125A000F0D6F80028F8D16F
:10343000322220A123A000F0CFF84FF47A721DA110
:1034400023A000F0C9F84FF47A724BA12AA000F033
:10345000C3F8142217A12FA000F0BEF804E0C82280
:1034600014A139A000F0B8F8C82246A12CA000F0A1
:10347000B3F80028F3D114220EA137A000F0ACF865
:1034800010BD00007C0000206D63752631312630B0
:1034900026313233343536373826256426BBF5CE0F
:1034A000EF6E616D65263530263130302E302623A3
:1034B000000000004F4B00004154000041544530D3
:1034C0000000000041542B43574D4F44453D33000D
:1034D00041542B43575341503D22536D6172742028
:1034E000686F6D65222C22313233343536373822FD
:1034F0002C312C340000000041542B43574A4150DA
:103500003D227363222C22736337313738373531CC
:103510003122000041542B4349504D55583D300055
:1035200041542B43495053544152543D225443502B
:10353000222C223139322E3136382E312E31303193
:10354000222C32363930300041542B4349504D4FF4
:1035500044453D310000000041542B434950534540
:103560004E4400007800002041542B4349504D4FF9
:1035700044453D30000000005749464920474F541C
:1035800020495000434F4E4E45435400724909882C
:1035900001F4004149B100216F4A1288C2F30E02C2
:1035A0006E4B995408B16C4A1180704770B504464F
:1035B00000256948008800F4004058B100206649A1
:1035C0000988C1F30E01654A50542146104600F0A7
:1035D00015FE0546284670BD2DE9F04106460D460C
:1035E0001446002700205C49088031465CA0FFF7A4
:1035F0006EFE05B3FCB114E00A20FEF786FF5648C4
:10360000008800F4004060B12846FFF7CFFF00B10A
:103610000BE03046FFF7CAFF00B106E000204E493C
:103620000880601E80B20400E6D100BF00204A4935
:10363000088004B901273846BDE8F0812DE9F04142
:1036400006460D46144600270020434908803146AF
:1036500045A0FFF73CFEC5B1BCB10FE00A20FEF764
:1036600054FF3D48008800F4004038B12846FFF779
:103670009DFF00B106E0002037490880601E80B23F
:103680000400EBD100BF04B901273846BDE8F08142
:1036900010B500BF3548008800F040000028F9D080
:1036A0002B203249091D08800F20FEF72EFF00BF96
:1036B0002E48008800F040000028F9D02B202B492C
:1036C000091D08800F20FEF720FF00BF2748008853
:1036D00000F040000028F9D02B202449091D088063
:1036E0004FF4FA70FEF711FF142221A121A0FFF779
:1036F00073FF10BD10B5FFF7CBFF08B1002010BD60
:1037000032221DA11DA0FFF767FF20A0FFF74EFF8B
:1037100068B122A0FFF74AFF48B124A0FFF746FF97
:1037200028B126A0FFF742FF08B10020E7E70120FB
:10373000E5E770B5FFF7ACFF08B1002070BD32229D
:103740000DA10EA0FFF748FF20A0FFF72FFF0546B1
:103750002C782046F2E700007800002008060020C0
:1037600025730D0A0000000025730000004800408A
:103770004F4B0000415400003A00000041542B43DD
:103780004950535441545553000000002B434950B5
:103790005354415455533A30000000002B434950D4
:1037A0005354415455533A31000000002B434950C3
:1037B0005354415455533A32000000002B434950B2
:1037C0005354415455533A34000000002B434950A0
:1037D0005354415455533A0010B501211D48FEF78A
:1037E0003EFC68B11C48008840F400401A4908803B
:1037F00001211848FEF744FC00211648FEF766F93F
:1038000010BD7FB505460C4601212020FDF751FB78
:10381000ADF80450ADF800400020ADF80600ADF85A
:10382000020069460B48FDF7F5FD012211460948E3
:10383000FEF767F937208DF80C0000208DF80D0099
:1038400001208DF80E008DF80F0003A8FCF79FFFF4
:103850007FBD0000001400407800002070B50546D0
:103860000C4600F0DEF9782000F08DFA00F01AFA2C
:10387000284600F088FA00F015FA204600F083FA96
:1038800000F010FA00F0EDF970BD10B504462146C5
:103890000020FFF7E3FF10BD10B50446214640208D
:1038A000FFF7DCFF10BD10B56420FEF72EFEAE2042
:1038B000FFF7EBFF2020FFF7E8FF1020FFF7E5FF01
:1038C000B020FFF7E2FFC820FFF7DFFF0020FFF77F
:1038D000DCFF1020FFF7D9FF4020FFF7D6FF812043
:1038E000FFF7D3FFFF20FFF7D0FFA120FFF7CDFFA9
:1038F000A620FFF7CAFFA820FFF7C7FF3F20FFF76A
:10390000C4FFA420FFF7C1FFD320FFF7BEFF0020B4
:10391000FFF7BBFFD520FFF7B8FFF020FFF7B5FF9B
:10392000D920FFF7B2FF2220FFF7AFFFDA20FFF721
:10393000ACFF1220FFF7A9FFDB20FFF7A6FF202036
:10394000FFF7A3FF8D20FFF7A0FF1420FFF79DFFD7
:10395000AF20FFF79AFF10BD70B504460D4605F184
:10396000B001C8B2FFF791FF102141EA1410FFF730
:103970008CFF04F00F0141F00100FFF786FF70BDDE
:1039800070B50646002415E004F1B001C8B2FFF797
:103990007CFF0020FFF779FF1020FFF776FF00255E
:1039A00004E03046FFF778FF681CC5B2802DF8DBD5
:1039B000601CC4B2082CE7DB70BD10B50020FFF717
:1039C000DFFF10BD10B58D20FFF75FFF1420FFF75C
:1039D0005CFFAF20FFF759FF10BD10B58D20FFF73A
:1039E00054FF1020FFF751FFAE20FFF74EFF10BD30
:1039F0002DE9F0470646894617469A464FF00008DB
:103A000000240025BAF1010F03D0BAF1020F5ED1F4
:103A100025E020E0785D203800F0FF087E2E04DDF0
:103A2000002609F1010000F0FF0949463046FFF782
:103A300093FF002409E008EB48016B4A02EB4101C7
:103A4000085DFFF729FF601CC4B2062CF3DBB01D34
:103A5000C6B2681CC5B2785D0028DBD137E032E021
:103A6000785D203800F0FF08782E04DD002609F18B
:103A7000010000F0FF0949463046FFF76DFF0024C2
:103A800007E004EB0811594A505CFFF705FF601C82
:103A9000C4B2082CF5DB09F10100C1B23046FFF7D2
:103AA0005BFF002408E004EB081108314F4A505C2A
:103AB000FFF7F2FE601CC4B2082CF4DB06F108002C
:103AC000C6B2681CC5B2785D0028C9D100BF00BF6E
:103AD000BDE8F0872DE9F04704460E4617469946A3
:103AE0004FF000080025A7F1200000F0FF087E2C11
:103AF00002DD0024701CC6B231462046FFF72CFFC1
:103B0000002509E008EB4801374A02EB4101485D16
:103B1000FFF7C2FE681CC5B2062DF3DBA01DC4B2C0
:103B2000BDE8F0872DE9F04180460E461746002497
:103B30007D0131464046FFF70FFF00BF06E02C49EC
:103B4000485DFFF7A9FE6D1C601CC4B2102CF6DBAB
:103B5000701CC1B24046FFF7FFFE002406E0244976
:103B6000485DFFF799FE6D1C601CC4B2102CF6DB9B
:103B7000BDE8F0812DE9F05F06460F4690461C46F1
:103B8000DDF828A04FF0000BE11704EB5171C910CC
:103B9000A4EBC10131B92046E11704EB5171C1F327
:103BA000C70506E02046E11704EB5171C910491C16
:103BB000CDB23D4614E029463046FFF7CDFEB14672
:103BC0000AE059460BF1010B1AF80100FFF764FEF9
:103BD00009F1010000F0FF09C145F2DB681CC5B224
:103BE000A542E8DBBDE8F09F005500082857000813
:103BF0008000002008B501211020FDF74DF90320B9
:103C0000ADF8000010208DF8030003208DF80200AD
:103C100069469048FCF784FE03218E48FCF72DFF8F
:103C200008BD10B58B48006820F0F0008949086095
:103C30000846006840F030000860012086490860AE
:103C40008649C1F880010420FEF73BFC0020824930
:103C500008600420FEF735FC00208049C1F880018F
:103C600010BD10B57B48006820F0F000794908606D
:103C70000846006840F03000086000207649091FBF
:103C800008607649C1F884010420FEF71AFC01207F
:103C90007149091F08607149C1F884010420FEF7C9
:103CA00010FC10BD10B500246A48006820F0F00038
:103CB000684908600846006840F0800008600120FC
:103CC00065490860FEF7FDFB01206449C1F88001E9
:103CD000FEF7F7FB07E0601CC4B2FA2C03DDFFF728
:103CE000C0FF012010BD5C48803800680028F2D178
:103CF0005949091F086000BFF4E710B50020564974
:103D0000091F08605348006820F0F000514908601E
:103D10000846006840F03000086000204F49C1F8B4
:103D200084010220FEF7CDFB01204B49091F0860EA
:103D30000220FEF7C6FB00204849C1F8800110BDF3
:103D400010B500204449091F08604248006820F06F
:103D5000F000404908600846006840F03000086004
:103D600001203E49C1F884010220FEF7AAFB012090
:103D70003949091F08600220FEF7A3FB00203749DC
:103D8000C1F8800110BD70B504463248006820F0CB
:103D9000F000304908600846006840F030000860D4
:103DA00000202D49091F086000251DE0E00918B119
:103DB00001202949086002E00020274908606006C8
:103DC000040E0220FEF77DFB01202349091F086035
:103DD0000220FEF776FB00202049C1F88001022076
:103DE000FEF76FFB681CC5B2082DDFDB70BD70B538
:103DF000054600241748006820F0F00015490860C7
:103E00000846006840F080000860002617E00020A7
:103E10001149091F08600220FEF753FB01200F49DA
:103E2000C1F880016006040E0B488038006808B1B4
:103E3000601CC4B20120FEF744FB701CC6B2082E01
:103E4000E5DB15B9FFF77CFF01E0FFF756FF2046E1
:103E500070BD000000100140840122420000224297
:103E6000704700001CB50C46064B7B446946009029
:103E7000204600F07CFA04460020694600F08AFAE9
:103E800020461CBD270500000FB4044910B503AA45
:103E9000029800F09BFA10BC5DF814FB7000002043
:103EA0000FB41CB5084B06AA7B44694600900598E0
:103EB00000F05DFA04460020694600F06BFA2046E7
:103EC0001CBC5DF814FB0000E904000070B504465A
:103ED00085690068C10601D5302600E02026C007AC
:103EE00007D070BDD4E9012130469047206A401CBC
:103EF00020626D1EF6D570BD70B5044685690078E8
:103F0000C00707D170BDD4E9012120209047206A65
:103F1000401C20626D1EF6D570BD70B50C4605467E
:103F2000012A05D02878800600D5EA69002302E03E
:103F3000012305E05B1C934202D2E05C0028F9D12A
:103F4000A869E618C01AA861286A18442862284699
:103F5000FFF7BCFF04E0D5E9012114F8010B9047FD
:103F6000B442F8D32846FFF7C7FF70BD2DE9F041F2
:103F70000646002410687529314615A510D000F0BA
:103F800072F9002802DA404212A507E031688A0778
:103F900001D511A502E0490704D510A5012401E0CF
:103FA00000F06AF900210A2306F1240707E0B0FBBC
:103FB000F3F203FB1200303078541046491C0028FD
:103FC000F5D123462A463046BDE8F04100F05DB900
:103FD000000000002D0000002B0000002000000069
:103FE000F0B40D460188090502D5214C7C4402E05D
:103FF0001F4C7C440E34002100F1240608E002F03E
:104000000F071209E75D42EA03721B097754491C46
:1040100052EA0307F3D102780023120704D5702D6A
:1040200006D009B1022311342246F0BC00F02DB9AC
:1040300001231034F8E770B504460D462146106898
:1040400000F01AF9024629462046BDE870400023D8
:10405000C6E7D21D22F00703D3E90023C0E70368B7
:10406000126843F0200303600823C3610023B7E70D
:10407000281D00002DE9F05F894604464FF0000A34
:10408000DFF874B1FB44C0F820A02046E1688847FF
:10409000002874D0252806D0D4E901219047206A51
:1040A000401C2062F1E700265F462046E168884711
:1040B0002028054607DB312D05D2781910F8200C91
:1040C00008B10643F1E7B00701D526F00406C4F8AD
:1040D0001CA00027C4F818A02A2D09D0284601F0FA
:1040E000DAF938B304EB8708303DC8F8185019E006
:1040F00059F8041B204604EB87029161E168884768
:10410000012F054618D1E069002820DA26F02006A4
:104110001DE0D8F8180000EB800005EB40003038B7
:10412000C8F818002046E1688847054601F0B3F951
:104130000028EED1012F0AD02E2D08D12046E168AB
:1041400088477F1C0546022F46F02006C4DBA06985
:10415000002803DA404246F00106A061F00701D0D2
:1041600026F010066C2D0BD0682D09D04C2D39D0BF
:104170006A2D35D0742D35D07A2D33D016E038E045
:10418000E1682F4620468847B842054609D16C2F82
:1041900026D04FF48060E1680643204688470546F4
:1041A00004E06C2F1AD04FF4807006430DB3A5F1D4
:1041B0004100192802D8203546F400664A462946AF
:1041C000204626604E46FCF70DF880B101280BD042
:1041D000F61D26F0070000F1080956E74020E4E745
:1041E0008020D8E70020D6E706F104094DE72846ED
:1041F00052E7206ABDE8F09FB81C000030B50546C4
:104200000B462A4613F8014B12F8010B08B1A042E5
:10421000F8D01CB1002802D06D1CF1E7284630BD53
:1042200010B5431C02E010F8011B71B18107FAD1EF
:104230004FF0013202C88C1A8C4314EAC211F9D033
:10424000C01A0A0603D0C01E10BDC01A10BD0A0451
:1042500001D0801E10BD0902FCD0401E10BD704769
:1042600070477047704709684A0501D540B27047EA
:10427000C905FCD500B2704709684A0501D5C0B22E
:104280007047C905FCD580B270472DE9F0470D464F
:1042900099469246044600F124080168880604D530
:1042A000E06921F01001216000E00120A84201DD59
:1042B000471B00E00027A1697A1902EB0900081AE0
:1042C000A0612078C00602D42046FFF7FFFD00263B
:1042D00008E0D4E901211AF806009047206A401C42
:1042E000761C20624E45F4DB2078C0060AD52046B5
:1042F000FFF7ECFD06E0D4E9012130209047206A69
:10430000401C2062381EA7F10107F4DC07E0D4E965
:10431000012118F805009047206A401C2062281EE1
:10432000A5F10105F3DC2046FFF7E6FD2078000645
:1043300002D50220BDE8F0870120FBE71168026882
:10434000006A530501D508700AE0D30501D508803D
:1043500006E0130603D5C217C1E9000200E00860B9
:104360000120704701694A1C02610878704700B556
:104370008FB0CDE901310021059105497944CDE99E
:10438000031011466846FFF775FE0FB000BD000030
:10439000E5FFFFFF0A6802F8010B0A60704710B5DD
:1043A000436913B1AFF3008001E0FFF7B6FD0120D0
:1043B00010BD127800F124010A7000224A70012217
:1043C000EDE711684FF0FF32E9E70000074B70B5E9
:1043D0000D467B44FFF7CBFF0446284600F040FB28
:1043E00010B14FF0FF3070BD204670BDA1E1FFFF5E
:1043F0002DE9FF5F15468A460446DFF8AC80F84495
:104400000027D8E900103E46CDE9001010E03AF848
:1044100016106A4602A800F027FB411C07D021783D
:10442000890603D5E269391891420DD80744761CF4
:104430002078800602D5E069B84205DDAE42E6DBB1
:104440003AF816000028E2D1A069C01BA0612046FE
:10445000FFF73CFDD8E90010CDE90010002017E07F
:104460003AF818106A4602A800F0FEFAB0F1FF3FD1
:1044700081460BD000250DF1080B05E0D4E90121A0
:104480001BF8050090476D1C4D45F7D308F101005E
:10449000B0428046E4DB206A384420622046FFF7C1
:1044A0002BFDBDE8FF9F0000521900002DE9F041EF
:1044B0008046D21D22F007020025D2E90002F5292C
:1044C00014A612D0002A06DA0023D0EB030063EB17
:1044D000020211A608E0D8F800108B0701D50FA63C
:1044E00002E0490701D50EA601251146002408F176
:1044F000240704E000F04EF830323A55641C50EACC
:104500000102F7D12B46324621464046BDE8F04134
:10451000FFF7BBBE000000002D0000002B000000D4
:104520002000000030B4002100F1240408E002F073
:104530000705D208303542EA4372DB086554491C4E
:1045400052EA0305F3D10468002310A2250708D519
:1045500004F020040C4304D0C46901230CA2641E9F
:10456000C46130BCFFF791BE10B504462146106807
:10457000FFF782FE02462046BDE810400023D1E747
:10458000D21D22F00701D1E90023CBE70000000093
:104590003000000030B5B0F10A024FEA900E71F120
:1045A00000034EEA817EB0EB0E0061EB91014FEA11
:1045B000101E4EEA017E10EB0E0041EB11114FEA86
:1045C000102E4EEA016E10EB0E0041EB11214FEA66
:1045D000104E4EEA014E10EB0E0041EB1141401817
:1045E00041F100014FEAD00040EA41704FEAD101A9
:1045F00010EB80054FEA810444EA907444EB010417
:104600006D1944EB0404521BA3414FF0000348BF53
:104610000A3200D530BD401C41F1000130BD704769
:104620002DE9FF4F0C461E464FF0FF378BB0D2E905
:104630000001DDF860800A908A46C1F30A5505B989
:104640003D46002108464FF00000BAF1000F00F48B
:10465000400005DA00EB80004FF4400101EA500011
:104660004FEA9059B9F1010F00DDB9460A9850EAB6
:104670004A000ED044F61050A5F2FF3545432F14E2
:10468000B8F1000F1ED07542291E1EDDC9F10002CF
:104690001CE0B8F1010F4FF0000001D0302103E021
:1046A000F24305E02154401CB042FBDB30460022BF
:1046B000002121540B99C1F80880C1E900200FB0F6
:1046C000BDE8F08FBD1B6D1CDEE74A4600DA69428B
:1046D00006A800F05BFA06AB93E8070003AB83E89B
:1046E000070050460A9900F007FB8DE80700A0F587
:1046F00000501F3800900398002D09DD42F21F0181
:104700004A46084403A90390684600F066FD08E0A5
:10471000A0F500504A461F3803A90390684600F0F0
:1047200070FD8DE807000004000C03D04FF0FF304F
:10473000410800E01046B8F1000F03D000220092BB
:1047400015461EE0751E05D4FFF724FF3032625572
:104750006D1EF9D5B3460122084302D000227F1C0A
:1047600004E02078302801D100227F1E002A09971A
:1047700086D01DE0112D07DAFFF70CFF30326255AD
:104780006D1C50EA0102F5D1084302D00098C8B16F
:104790000EE00021681E05E0235C625C6354225435
:1047A000401E491C8142F7DBAB46A81B401E099006
:1047B000002004F80B000B98099AC0F80880C0E9A3
:1047C000002B7CE711264FF0000859E72DE9F04F48
:1047D00088460446D21D22F0070191B0D1E90001BC
:1047E000CDE90A0100F043FE02460B98C00F01D04C
:1047F0002D2007E02068810701D52B2002E0202131
:1048000001EAC000032A099001D0072A05DB03460C
:104810004146204600F07AF909E12078800601D56A
:10482000E06900E00620B8F1650F814606D0B8F1D6
:10483000660F18D0B8F1670F70D131E00020B9F1E0
:10484000110F009001DB112301E009F101030AAA15
:1048500001A90CA8FFF7E4FEDDE90C70002609F1C0
:104860000105834647E001204B4600904FF000478A
:104870000AAA01A90CA8FFF7D3FEDDE90DB00C9937
:104880005D46002610B909F101000D18B9EB0500CD
:1048900003D4C0F1FF3609F10105A5EB09002BE0B7
:1048A000B9F1010F01DA4FF001090020B9F1110F40
:1048B0000090484601DD112300E003460AAA01A941
:1048C0000CA8FFF7ADFEDDE90C704D4600268346CF
:1048D000207800070AD4AB4500DA5D4601A8012D17
:1048E00004DD411911F8011C302907D04F4502DAC7
:1048F00017F1040F04DA012082460FE06D1EEEE787
:10490000002F02DCED1B3E4403E0781CA84200DDD2
:104910007D1CB81B00F1010A4FF00047207800070A
:1049200003D4AA4501DB4FF0FF3A0021B7F1004F55
:104930000DF143088DF8431022D002202B23002FC5
:1049400001DA7F422D234FF00A0C011EA0F1010075
:1049500000DC47B197FBFCF10CFB11720F463032C3
:1049600008F8012DF1E7A8F101000370218809057D
:1049700001D5452100E06521A0F1010800F8011CE6
:1049800009980FA9A1EB0807FF1D00B101204119EB
:1049900001EBEA70A1693844081A401EA061207832
:1049A000C00602D42046FFF791FA099828B1D4E94D
:1049B00001219047206A401C20622078C00622D541
:1049C0002046FFF783FA1EE0002E04DBB34502DD2C
:1049D00001A8805D00E03020D4E901219047206AE1
:1049E000401C2062761CAAF101005FEA000A0AD18D
:1049F00000F088F8C0680168405CD4E90121904764
:104A0000206A401C2062281EA5F10105DCDC07E0BD
:104A1000D4E9012118F8010B9047206A401C20625C
:104A2000381EA7F10107F3DC2046FFF765FA0220E4
:104A300011B045E610B5436913B1AFF3008001E052
:104A4000FFF7D6FC012010BD128800F124018284FA
:104A50000022C2840122EDE711684FF0FF32E9E73E
:104A6000007B00F08000704770B516460C46054686
:104A700000F040F8036893F80101012806D0FF2CEC
:104A80000FD8185D68B101202C7070BDD3F80701F4
:104A90003246214603442846BDE8704003F207131E
:104AA00018474FF0FF3070BD754600F0E1F8AE4694
:104AB00005006946534620F00700854618B020B52A
:104AC000FBF74EFEBDE820404FF000064FF0000718
:104AD0004FF000084FF0000B21F00701AC46ACE8A6
:104AE000C009ACE8C009ACE8C009ACE8C0098D4613
:104AF0007047000010B500F005F8001D10BD00BFA4
:104B0000D109000000487047D80A00202DE9F04183
:104B10001F46044603260168072A01F4006004DBEF
:104B200008B116A505E016A503E008B115A500E03B
:104B300015A521F010002060A069C01EA0610FB172
:104B4000401EA0612046FFF7C1F94FB1D4E9012111
:104B500038469047206A401C2062C01C206206E054
:104B6000206AFAE7D4E9012115F8010B9047761E77
:104B7000F8D22046FFF7C0F9BDE8F0814E414E0063
:104B80006E616E00494E4600696E66002DE9F04781
:104B9000814616468AB0324878440DC88DE80D002B
:104BA0002F487844801C03AC0DC884E80D0041F602
:104BB0009B303722014491FBF2F0A0F1800502FB0B
:104BC00010141B3C02D56442012000E00020DFF8F5
:104BD00090A080460027FA44AAF1BA0A0DE0E00747
:104BE00009D03246684607EB47010AEB810100F025
:104BF00008FB8DE8070064107F1C002CEFD1184FD4
:104C00007F44A83F18E0E80714D007EB04100DF12B
:104C1000180A90E80E008AE80E00C068F04201D140
:104C200098190890324606A903A800F0EAFA03ABE7
:104C300083E807006D10641C002DE4D132466946FC
:104C4000B8F1000F03A802D000F0C7FA01E000F0AD
:104C5000D8FAC9E90001C9F808200AB0BDE8F08710
:104C60003C1200000446AFF300802046FBF71DFB1A
:104C700000487047B80A00204FF0013C50F8042B60
:104C800051F8043B9A4221D1A2EB0C03934313EA5F
:104C9000CC1317D150F8042B51F8043B9A4215D18C
:104CA000A2EB0C03934313EACC130BD150F8042B63
:104CB00051F8043B9A4209D1A2EB0C03934313EA47
:104CC000CC13DBD04FF00000704700BFD01A01BA00
:104CD000B1FA81F101F0180122FA01F0CB40C1F1E3
:104CE0002001DBB2C0B2C01A2CFA01F3D11A9143F1
:104CF00011EAC311E6D170475FEA400C08BF91F09A
:104D0000000F4FEA8C234FEAC12243EA51514FEA88
:104D10001C5018BF00F5F0404FEA300018BF41F0BA
:104D200000415FEA6C5C00F02980BCF1FF3F08BFE6
:104D300040F080407047130C06BF12044FF0100C77
:104D40004FF0000C130E04BF12020CF1080C130FED
:104D500004BF12010CF1040C930F04BF92000CF17C
:104D6000020CD30F04BF52000CF1010C11464FF09E
:104D70000002A0F11F00A0EB0C00704711F0004FE3
:104D800008BF704731F000413FF4D5AF0B0C06BFB0
:104D900009044FF0100C4FF0000C0B0E04BF090279
:104DA0000CF1080C0B0F04BF09010CF1040C8B0F64
:104DB00004BF89000CF1020CCB0F04BF49000CF1B9
:104DC000010CCCF12003A0EB0C0022FA03F302FA51
:104DD0000CF241EA030100F10100704720F07F4C22
:104DE00080EA030023F07F47ACEB070303F57C5315
:104DF00000F0004003F1FF032DE980494FEA154B15
:104E000009B44FEA144325EA0B4E24EA03480FF293
:104E1000042606EB132749083E785FEA320203FBBB
:104E20000667C7F5000707FB06F64FEA54374FEA57
:104E3000D64606F1020607FB066CCCF1005C4FEA91
:104E40001C472CEA074C07FB06F40CFB06F504EBA9
:104E500015464FEA961634BF00204FF000404FEA47
:104E6000D13706FB07FC4FEA1C4C0CFB0BF7D21B9F
:104E700003FB0CF761EB07010CFB0EF7B0EB0740EF
:104E800072EB17420CFB08F734BFA2EB0742B2EB00
:104E9000074261EB17414FEA0C444FEA910706FBCA
:104EA00007FC4FEA1C4C0CFB0BF7B0EBC74072EB56
:104EB000573203FB0CF734BFA2EBC742B2EBC74239
:104EC00061EB57310CFB0EF7B0EBC70072EB57727A
:104ED0000CFB08F734BFA2EBC702B2EBC70261EBD1
:104EE0005771039F4FEA816141EA921104EBCC04B0
:104EF0004FEAD1374FEA826206FB07FC42EA901282
:104F00004FEA80604FEA1C4C0CFB0BF7D21B03FBF3
:104F10000CF761EB07010CFB0EF7B0EB074072EBEF
:104F200017420CFB08F734BFA2EB0742B2EB074273
:104F300061EB17414FEA8C554FEA910704EB9C2433
:104F400006FB07FC4FEA1C4C0CFB0BF7B0EBC74011
:104F500072EB573203FB0CF734BFA2EBC742B2EB44
:104F6000C74261EB57310CFB0EF7B0EBC70072EB99
:104F700057720CFB08F734BFA2EBC702B2EBC702B3
:104F800061EB577115EB4C254FEA816141EA9211B3
:104F90004FEA82624FEAD13742EA901206FB07FCE1
:104FA00044F100044FEA80604FEA1C4C0CFB0BF705
:104FB000D21B03FB0CF761EB07010CFB0EF7B0EB08
:104FC000074072EB17420CFB08F734BFA2EB074215
:104FD000B2EB074261EB174115EB1C154FEA81312B
:104FE00041EA92414FEA823242EA90424FEA8030EF
:104FF0004FEA0C7644F1000448EA03434EEA0B48BA
:105000004FF0000EB2EB080C71EB030724BF6246B1
:1050100039464EEB0E0E4FF0000B0018524149413D
:105020004BEB0B0BB2EB080C71EB03077BF1000BA6
:1050300024BF624639464EEB0E0E4FF0000B0018AF
:10504000524149414BEB0B0BB2EB080C71EB0307E0
:105050007BF1000B24BF624639464EEB0E0E51EA3F
:10506000020718BF46F0010616EB0E7655F1000256
:1050700054F1000103D5BDE88901BDE80088BDE811
:105080008901B619BDE80048524141EB0101A3F185
:105090000103704780807F7E7D7C7B7A797877768C
:1050A00076757473727171706F6E6E6D6C6C6B6A05
:1050B0006A696868676666656464636362616160A3
:1050C000605F5F5E5E5D5D5C5C5B5B5A5A59595820
:1050D000585757565655555554545353525252518A
:1050E000515050504F4F4F4E4E4D4D4D4C4C4C4BE0
:1050F0004B4B4A4A4A494949484848474747474627
:105100004646454545444444444343434342424262
:1051100042414141002B26D4770021D01CB54FEAF3
:10512000370703B44FF010004FF010014FF00000AC
:105130000FBC0BF1010BBDE81040BBF1010F08BF24
:105140005FEA170722BF12F1010211F101014FF0CE
:10515000004143F1000300F0004043EA00007047C3
:10516000F9D35708DAE746EA064613F1400F4FEA4B
:1051700016461FDD13F1200FDFBF16430A4600213C
:1051800020335B42C8D0C3F1200746EA064602FA44
:1051900007F74FEA164646EA0706C3F1200722FA48
:1051A00003F201FA07F721FA03F14FF0000342EA94
:1051B0000702B1E746EA020646EA06464FEA164605
:1051C00046EA0106BCBF46EA0646360C4FF000032D
:1051D0004FF000024FF000019EE72DE9C0489346D2
:1051E00030B491E8380007C831EA400C48BF34EACF
:1051F000430C03D5FFF7F2FDFFF78CFFF0BCBDE8D1
:1052000000882DE9C048934630B491E8380007C8BB
:1052100010F0804F08BF13F0804F03D100F005F865
:10522000FFF778FFF0BCBDE8008820F07F4780EAF8
:10523000030023F07F4C07EB0C03A3F57C5300F035
:105240000040A3F1FE0392F0000F00F0B38095F050
:10525000000F00F077802DE901494FEA11404FEA35
:10526000144621EA004800FB06FC24EA064708FB36
:1052700006F607FB08F800FB07F718EB06484CEBAF
:10528000164C4FEA124B18EB07484FEA15464CEB09
:10529000174022EA0B4E0BFB06FC25EA06470EFBE5
:1052A00006F607FB0EFE0BFB07F71EEB064E4CEB5C
:1052B000164C4FF000061EEB074E4CEB174B18EB4D
:1052C0000B0840F1000018EB0E0B58EB000840F102
:1052D00000008F1A4FF000013CBFC943661B14BF8A
:1052E000B5EB040C00213CBFC943F61B4FEA174441
:1052F0004EEA8E0E27EA04454FEA1C4704FB07627C
:105300002CEA074C05FB07F70CFB05F604FB0CFC2D
:1053100016EB074642EB174216EB0C4642EB1C42DB
:105320001BEB060658EB0202414146EA9E0601D5F8
:10533000BDE80189B619524141EB0101A3F1010316
:10534000BDE801894FEA14454FEA114724EA0546B2
:1053500021EA074C05FB07F406FB07F70CFB06F1F7
:1053600005FB0CFC11EB074144EB17444FEA1247D5
:1053700011EB0C4144EB1C4422EA074C05FB07F2FD
:1053800006FB07F70CFB06F605FB0CFC16EB0746C5
:1053900042EB174216EB0C4642EB1C456A1854F1DF
:1053A000000148BF7047B619524141EB0101A3F11A
:1053B0000103704795F0000F37D04FEA11424FEAD2
:1053C000144721EA024624EA074C02FB07F106FBD8
:1053D00007F70CFB06F402FB0CFC14EB074441EB53
:1053E00017414FEA154714EB0C4441EB1C4125EAE9
:1053F000074C02FB07F506FB07F70CFB06F602FB62
:105400000CFC16EB074645EB174516EB0C4645EB37
:105410001C42121951F1000148BF7047B6195241A0
:1054200041EB0101A3F1010370474FEA14454FEA34
:10543000114724EA054621EA074C05FB07F106FB64
:1054400007F70CFB06F24FF0000605FB0CFC12EB15
:10545000074241EB174112EB0C4251EB1C4148BF94
:105460007047921841EB0101A3F101037047490015
:1054700050EAC12018BF04204A0D18BF40F00100B7
:1054800040F2FF72B2EB515F08BF40F0020001280A
:1054900008BF0520704730380A2801D20120704724
:1054A0000020704710B500290AD00878002807D0DE
:1054B00005487844FFF7E0FB002801D0002010BD2C
:1054C0000248784410BD00005E0900005609000043
:1054D00010B500290AD00878002807D0054878447C
:1054E000FFF7CAFB002801D0002010BD0248784415
:1054F00010BD00004E09000046090000FFF766B924
:105500000000000000000000002F00000000070065
:10551000070000147F147F1400242A7F2A120062DF
:10552000640813230036495522500000050300008B
:1055300000001C224100000041221C000014083E13
:1055400008140008083E0808000000A060000008D9
:10555000080808080000606000000020100804022D
:10556000003E5149453E0000427F400000426151EB
:105570004946002141454B31001814127F10002785
:1055800045454539003C4A49493000017109050348
:1055900000364949493600064949291E0000363679
:1055A00000000000563600000008142241000014DC
:1055B00014141414000041221408000201510906B9
:1055C00000324959513E007C1211127C007F49493A
:1055D0004936003E41414122007F4141221C007F6B
:1055E00049494941007F09090901003E4149497A79
:1055F000007F0808087F0000417F410000204041F3
:105600003F01007F08142241007F40404040007F5E
:10561000020C027F007F0408107F003E4141413EA2
:10562000007F09090906003E4151215E007F0919EA
:1056300029460046494949310001017F0101003FE7
:105640004040403F001F2040201F003F4038403F67
:1056500000631408146300070870080700615149CB
:10566000454300007F41410000552A552A5500005E
:1056700041417F00000402010204004040404040DC
:10568000000001020400002054545478007F484474
:10569000443800384444442000384444487F0038AB
:1056A0005454541800087E0901020018A4A4A47CD4
:1056B000007F080404780000447D4000004080849E
:1056C0007D00007F102844000000417F4000007CE6
:1056D00004180478007C08040478003844444438F2
:1056E00000FC242424180018242418FC007C08043E
:1056F000040800485454542000043F444020003C17
:105700004040207C001C2040201C003C4030403C9D
:10571000004428102844001CA0A0A07C004464542D
:105720004C44141414141414000000000000000071
:105730000000000000000000000000F80000000071
:10574000000000333000000000100C06100C0600B2
:10575000000000000000000040C07840C078400019
:10576000043F04043F040400007088FC083000007B
:10577000001820FF211E0000F008F000E0180000D3
:1057800000211C031E211E0000F00888700000008C
:105790001E2123241927211010160E0000000000DE
:1057A0000000000000000000000000E018040200FB
:1057B000000000071820400000020418E00000006C
:1057C0000040201807000000404080F0804040006A
:1057D0000202010F01020200000000F000000000C0
:1057E0000101011F01010100000000000000000094
:1057F00080B0700000000000000000000000000009
:105800000001010101010101000000000000000091
:10581000003030000000000000000000806018042C
:10582000006018060100000000E010080810E00009
:10583000000F102020100F00001010F800000000D2
:105840000020203F20200000007008080888700019
:105850000030282422213000003008888848300099
:105860000018202020110E000000C02010F80000B9
:1058700000070424243F240000F808888808080052
:105880000019212020110E0000E010888818000067
:10589000000F112020110E0000380808C838080039
:1058A0000000003F000000000070880808887000B9
:1058B000001C222121221C0000E010080810E0003A
:1058C0000000312222110F00000000C0C0000000C3
:1058D00000000030300000000000008000000000E8
:1058E00000008060000000000000804020100800E0
:1058F00000010204081020004040404040404000A9
:105900000404040404040400000810204080000083
:105910000020100804020100007048080808F00088
:105920000000003036010000C030C828E810E00058
:105930000718272423140B000000C038E0000000E3
:10594000203C23020227382008F88888887000004D
:10595000203F202020110E00C03008080808380021
:10596000071820202010080008F808080810E00098
:10597000203F202020100F0008F88888E808100039
:10598000203F20202320180008F88888E80810000D
:10599000203F200003000000C03008080838000045
:1059A00007182020221E020008F808000008F80846
:1059B000203F210101213F20000808F808080000CD
:1059C0000020203F2020000000000808F808080000
:1059D000C08080807F00000008F888C02818080078
:1059E000203F20012638200008F8080000000000B1
:1059F000203F20202020300008F8F800F8F80800A8
:105A0000203F003F003F200008F830C00008F808A1
:105A1000203F200007183F00E01008080810E000B1
:105A20000F10202020100F0008F808080808F000C8
:105A3000203F210101010000E01008080810E000EB
:105A40000F18242438504F0008F888888888700080
:105A5000203F2000030C3020007088080808380020
:105A60000038202121221C00180808F80808180016
:105A70000000203F2000000008F808000008F80897
:105A8000001F202020201F000878880000C8380848
:105A9000000007380E010000F80800F80008F800C0
:105AA000033C0700073C030008186880806818085A
:105AB00020302C03032C30200838C800C8380800D8
:105AC0000000203F2000000010080808C838080027
:105AD0002038262120201800000000FE02020200CB
