:020000040000FA
:030000000200E318
:03001300020E0ECC
:10008300020E2900000080FB120113B900030200D5
:10009300CDE4900200785B79038002F0A3D8FCD909
:1000A300FA90045AAA82AB83900116786179018091
:1000B30015E493A3AC82AD838A828B83F0A3AA82D7
:1000C300AB838C828D83D8E9D9E77582D17583247C
:1000D30074001200F575828675830074001200F5B2
:1000E30075D0007581BF751000751102759F0002F0
:1000F300008BC09FF59FE473D09F22D083D082C032
:100103009FE493C0E0740193C0E0740293F59F22CF
:10011300790122FF00000000000000000000000041
:1001230000000049686800303132333435363738DF
:100133003941424344454600286E756C6C20706F0C
:10014300696E74657229003F3F3F000000807F00A5
:1001530000803FF9021550B743BA51000020410017
:10016300E7DB2E0000A04010000000080000000A9A
:100173000000001200FEB61E001200FE5D1F0012FA
:1001830000FEBE1F001200FEEB20001200FE7421D1
:10019300001200FE1022001200FE2022001200FEB8
:1001A300ED22001200FEBB27001200FEF127001211
:1001B30000FEBF28001200FECA28001200FED72846
:1001C300001200FEEA28001200FE7A26001200FE4A
:1001D3008E26001200FEAB26001200FEB626001289
:1001E30000FED226001200FEE028001200FEE528E1
:1001F300001200FE3F27001200FE6727001200FED8
:100203009427001200FE2825001200FE5425001238
:1002130000FE6425001200FE7A25001200FE9125DF
:10022300001200FEA825001200FED425001200FED5
:10023300F825001200FE0926001200FE1226001205
:1002430000FE1B26001200FE3026001200FE45268B
:10025300001200FE6426001200FE7726001200FE44
:100263000123001200FE0A23001200FECD23001218
:1002730000FE7928001200FE1C28001200FE2D2823
:10028300001200FE670E001200FE851300C008C3B3
:10029300E096F50808A3E096420808A3E096420812
:1002A30008A3E0964208A2D265D033E5087001D3D3
:1002B300D00822080808E630E711120AF21202CE2B
:1002C300080808C64480C618181822181818E979AF
:1002D3009EC608CAC608CBC608CCC6C3702079968A
:1002E300CACBCC7019798ECBCC70137986CC700EB7
:1002F300F9802ACA33CACB33CBCC33CC331930E79A
:10030300F2CCCBCA3350147004EA30E00DE4CA3A9D
:10031300CACB3BCBCC3CCC500209C3E913C6CC18A7
:100323002313C6CB18C6CA18C6F92212036E20F0CF
:100333001430E72B74FFFCFBFA747F8022E4FCFB90
:10034300FA7480801AB48008BC00F2BB00EF800FFF
:1003530050EBF9E4C39AFAE49BFBE49CFCE499C6F2
:10036300CC18C6CB18C6CA18C6F922E4C9C608CA2F
:10037300C608CBC6D3330308CCC63392F0C3947FED
:10038300402E94184019C9B90704CACBCC22502572
:10039300C309CA33CACB33CBCC33CC33D9F422F41D
:1003A300600DC9CCC313CB13CBCA13CAD9F6CC2265
:1003B300E4FCFBFA2214FCFBFA22E6C333184618CA
:1003C30046184622E7C33319471947194722181815
:1003D30018E6084608700AE608C3337005E633F4E6
:1003E300220822191919E7094709700AE709C333D3
:1003F3007005E733F4220922E6084608C3134608CA
:10040300336002E633F422E7094709C3134709338C
:100413006002E733F4221203FB602512040A602012
:100423001203BD70030203C7080808E766701018BB
:1004330019E766700A1819E76670041819E7662247
:10044300F4221203FB601C12040A60171203BD702E
:10045300071203C77001D322C0D01203C77006D09E
:10046300D0B322C32233D0D0501430E0F6C3E79682
:100473000809E7960809E7960809E796B32220E0FA
:10048300D5E6970809E6970809E6970809E697B3BA
:10049300221203FB601B12040A60161203BD7007CD
:1004A3001203C7600CB322C0D01203C77005D0D0AB
:1004B30022C32233D0D0501330E0EBC3E7960809B0
:1004C300E7960809E7960809E7962220E0E4E6970D
:1004D3000809E6970809E6970809E6972200120338
:1004E300FB604F12040A6012E7548066F61203D1D0
:1004F30070111203C7703B090909F4F618F618F6D0
:1005030018F6221203E670151203BD08080860EA04
:10051300E6447FF618768018E4F618F6221203BD37
:1005230060161203C77012E4F608F608F608E654DC
:1005330080F609090918181822EAC0E0EBC0E0ECBC
:10054300C0E0EDC0E0E687F0A4FBACF008E687F07E
:10055300A42CFCE435F0FA1809E687F0A42C4B60D0
:10056300027401CA35F0FCE433FB09E687F0D2F7E5
:10057300A42CCB35F0FC1908E687F0A42BCC35F07E
:10058300FBE433FD0819E687F0D2E7A42C4ACB3508
:10059300F0CD3400FC09E687F0D2E7A42DCC35F08A
:1005A300FDE433FA0918E687F0D2F7A42CCD35F031
:1005B300CA3400FC08E687F0D2E7D2F7A42ACC3588
:1005C300F07A7E20E70B0ACB33CBCD33CDCC33CCC3
:1005D30033CB3350147004ED30E00ED2F1E4CD3D53
:1005E300CDCC3CCC3B5005DA05C2F1EB547FC6338E
:1005F30008E63392F0FBE73309E733C39A502D2B18
:1006030070190C0D4C4D70151806E608C333700DA8
:1006130020F10AA2F013F6E418800B4024E4F6302C
:10062300F002768018F618F618F68024D33B14509F
:100633001074FFA2F013F6187680E418F618F6800B
:100643000FA2F013F618E63303F618ECF618EDF6DE
:10065300D0E0FDD0E0FCD0E0FBD0E0FA2212040AA7
:1006630060461203FB603DE9687008F618F618F659
:1006730018F622748067F7120694090909748067D3
:10068300F7221203FB601D12040A70051919198061
:100693001A1203D1701F1203E6C37003E6673319FE
:1006A300191940071818182208080874FFF618F6D5
:1006B30018F618F6221203E660171203C770219288
:1006C300F01203BD7019501720F014080808090927
:1006D30009E7F61819E7F61819E7F61819E7F622E5
:1006E3001203BD60E6E869701F0808E62480F60877
:1006F300E436F618547FB47F0CE654806007F6E4C2
:1007030018F618F622181822E9C6CC08C6CD08C672
:10071300CE08C6CFC0E0E8C0E0EAC0E0EBC0E00925
:10072300E9F809E7FA09E7FBE6F918E6F8C3EC98F4
:10073300ED99EE9AEBC2E7F5F0EFC2E795F0500EB4
:10074300600CEBCFFBEACEFAE9CDF9E8CCF8EAA2EC
:10075300E7D2E7FAEB33FB13F5F0EEA2E7D2E7FEBD
:10076300EF33FFC5F013A2E730E601B313C5F0C3BF
:10077300C0E0C0F07F00C39BFB605B9418600C403B
:100783001AD0E023F9D0E0F80208638AF0E9486060
:1007930003D2F0E4AFF0FAF9F8803BEB30E40D89D3
:1007A300F0EA6003D2F0E4AFF0F9CAF8EB30E30DFE
:1007B30088F0EF6002D2F0AFF0E4CAC9F8EB540757
:1007C3006014FBC3EA13FAE913F9E813F8EF1350C3
:1007D30002D2E0FFDBEDD0E0C0E030E739C3E49FB5
:1007E300FFF5F0EC98FC42F0ED99FD42F0EE9AFE35
:1007F30042F0D0E0F9D0E0F8E5F0607AE923F9EED1
:1008030020E742D8028067C3EF33FFEC33FCED33BC
:10081300FDEE33FE80EAEC28FCED39FDEE3AFED026
:10082300E023F9D0E0F84002801BC3EE13FEED1382
:10083300FDEC13FCEF135002D2E0FF08B800067F73
:100843007F74FF802EEF3350178CF020F00260107E
:100853000CBC000C0DBD00080EBE000408E860DFF0
:10086300E933E813FFEE2313FE4F4D4C8008E954A0
:1008730080FFE4FEFDFCEE33EF33F47004FCFD7EF9
:1008830080D0E0FBD0E0FAD0E0F8D0E0CFC618CEBD
:10089300C618CDC618CCC6F9221203FB700418186B
:1008A300182212040A700D74FFF61819F61819F6B7
:1008B3001819F622E7548066F61203BD700F12036F
:1008C300C770F014F608F608F608F680D11203C7CD
:1008D300700CF608F608768008E6447F80EC120375
:1008E300E9700C1203D460BFE65480F6E480BB12B7
:1008F30003D4700519191980A5E869700C763F189F
:10090300768018F618F6E8F922E6CDC0E018ECC0B8
:10091300E0E633CD33CDD313F6E719FCE7191933EA
:10092300CC33C3947F400ECD9D502408E65480F60B
:10093300E418F6800FF4043D14501408E6447FF6DF
:10094300187680E418F618F6D0E0FCD0E0FD22CC4F
:10095300D313CCFD18E4C6CBC0E018E4C6CAC0E08C
:100963000808ED08C633E613F618E433C675F0033A
:10097300C3CA97CA09CB97CB199C40047D08802E24
:10098300BD0003020A4516B6FF050606081618C37E
:10099300CA33CACB33CB33CA27CA09CB37CB193CAB
:1009A300C37D08803E187D0820E75CC633C6CA3382
:1009B300CACB33CB33DDF1D5F0EB30E77BCA97CA33
:1009C30009CB974ACB199C406F4B7025E620E02159
:1009D3008066187D08C3CA97CA09CB97CB199CD3E5
:1009E300C633C6CA33CACB33CB3350C9DDE7D5F0E0
:1009F300E1D3E4C636C608C636C608C636C608C638
:100A030036C61818188031C3CA97CA09CB97CB19B1
:100A13009CB34097C633C6CA33CACB33CB33DD341A
:100A2300D5F02EC6A2E0C640C8CA27CA09CB3719DB
:100A33004A70BECB3CB480B90808E63308E633609D
:100A43001F181818D0E0FAD0E0FBD0E0FCD0E0FD8E
:100A530022187D08CA27CA09CB37CB193CD380801B
:100A630013F618E4B67F11F618B6FF0EF618C6048F
:100A730070D20808768080CAF618F618F680C5E4A6
:100A8300CFC0E0E4CEC0E0E4CDC0E0E4CCC0E0758C
:100A9300F020C3E633F608E633F608E633F608E655
:100AA30033F6181818EC33FCED33FDEE33FEEF3359
:100AB300FFC3EC9709ED9709EE9709EF97191919F9
:100AC300400FFFEC97FC09ED97FD09EE97FE19190E
:100AD30006D5F0BEECF709EDF709EEF709EFF719C4
:100AE3001919D0E0FCD0E0FDD0E0FED0E0FF2218E1
:100AF3001818E4C396F608E496F608E496F608E4B4
:100B030096F622E0F608A3E0F608A3E0F608A3E0D1
:100B1300F622E6F008A3E6F008A3E6F008A3E6F061
:100B230022E0FAA3E0FBA3E0FCA3E0FD22EAF0A3AA
:100B3300EBF0A3ECF0A3EDF022CAC0E0E6F0A308CB
:100B4300DAFAD0E0FA22CAC0E0E0A3C582CCC582BB
:100B5300C583CDC583F0A3C582CCC582C583CDC56E
:100B630083DAE6D0E0CA22C3E498F8E499F9120BD9
:100B7300AB8026C3E49AFAE49BFBE920E7E9120B76
:100B8300ABE498F8E499F922C3E498F8E499F912EC
:100B93000BABE498F8E499F9C3E49AFAE49BFB22DB
:100BA300EB20E7CFE920E7E0B90010BB0008E88AB3
:100BB300F084F8AAF022E4FBC8FA22EB70227B103F
:100BC300C833C8C933C9335007C39AC3DBF280069D
:100BD3009A50012ADBEAC833F4C8C933F4C9FA22AC
:100BE30075F008E4C833C8C933C933C99AC99B50DF
:100BF30004C92AC93BD5F0ECFBC833F4C8E4C9FAED
:100C030022251010AF08F510400215118008F510C9
:100C130040021511D2AF22C0D0251010AF08F51035
:100C2300500205118008F51050020511D2AFD0D043
:100C3300222510F58210AF08F51040021511800827
:100C4300F51040021511D2AF851183222510F582CC
:100C5300E43511F58322E4732510C582C0E0E51164
:100C630034FFC583C0E0E510C3958224F810AF08B4
:100C73008583118582108008858311858210D2AF08
:100C8300CEF0A3E520F0A37808E608F0A3DEFAEFA0
:100C9300F0A3E58124FAF8E608F0A3E608F0A3E65A
:100CA30008F0A30808E608F0A3E608F0A3158115E9
:100CB30081D0E0FED0E0F8158115811581E8C0E010
:100CC300EEC0E022851183851082E0A3FEE0A3F548
:100CD300207808E0A3F608DFFAE0A3FFE0A3C0E072
:100CE300E0A3C0E0E0A3C0E0E0A3C0E0E0A3C0E075
:100CF30010AF088582108583118008858210858353
:100D030011D2AFD083D0820200FBC0D02510C582A0
:100D1300C0E0E51134FFC583C0E0E510C39582242C
:100D2300F310AF08858311858210800885831185B0
:100D33008210D2AFC8F0A3E9F0A3EAF0A3EBF0A3CB
:100D43007908E709F0A3D8FAECF0A3EDF0A3EEF0ED
:100D5300A3EFF0A3D0E0F0A3D0E0F0A3D0E0F0A3A2
:100D6300E520F0A3E5F0F0A322851183851082E04E
:100D7300C0E0A3E0F9A3E0FAA3E0FBA37808E0F660
:100D830008A3DFFAE0FCA3E0FDA3E0FEA3E0FFA3DA
:100D9300E0C0E0A3E0C0E0A3E0F5D0A3E0F520A32A
:100DA300E0A3F5F010AF08858311858210800885D4
:100DB3008311858210D2AFD082D083D0E0F8D0E007
:100DC30032740280027401C0E0F404120C34D0E0E7
:100DD300120B3C2274028000CCC0E0EDC0E0E510B1
:100DE300C39CCCAD1150011D10AF068C108D11802A
:100DF300068C108D11D2AF120B49D0E0FDD0E0FC70
:100E030022EAF5C1A2E950FCC2E922C0E074F21261
:100E13000D0D1201E2D2F0A29030F001B39290C214
:100E23008B7F01020D6CC0E074F2120D0DA2AFE4D2
:100E330033FEC2AFE5E9A2E650209002FFE0F8A33B
:100E4300E0F9E849600E9002FFE0F8A3E0F583883B
:100E530082120C59759B0053E9BFEEA2E092AF7F5B
:100E630001020D6C74F0120C5B74FD120C0474021D
:100E7300120C4FE9F08A088B098C0A8D0B7415123A
:100E83000C4FE0FEA3E0FF851082851183E4F0A3FD
:100E9300F08E828F83A3AA82AB83900492780C1284
:100EA3000B067808790C12041970188E828F8374DC
:100EB30069121346746EF0A37466F0A30A0AAB8337
:100EC3000212E17808790812041960118E828F8367
:100ED300746E1213467461F0A3746E80DD900496F1
:100EE300780C120B067808790C1204455003020F94
:100EF30091900466780C120B067808790C12041989
:100F03006003020FE57417120C4FE0700302102701
:100F1300851082851183C082C0837413120C4F1213
:100F23001D84D083D08212131F502C85108285110B
:100F330083C3E094FCA3E094FFA2D265D0334017AF
:100F43007402120C4FE4121E58F97413120C4FC39F
:100F5300E098F0A3E099F07413120C4F12133C7451
:100F630018120C4FE070030210247417120C4FE494
:100F730002102690049A780C120B067808790C124A
:100F8300089C851082851183E0240A121E95900423
:100F93009E780C120B067808790C12044540D49005
:100FA30004A2780C120B067808790C12044540034E
:100FB300020F089004A2780C120B067808790C1221
:100FC300089C121E8C80D890049A780C120B067819
:100FD30008790C1204E0851082851183E024F6124F
:100FE300133F9004A6780C120B067808790C1204B0
:100FF3009440D4900496780C120B067808790C125E
:1010030004944003020F089004A2780C120B067894
:1010130008790C1204E085108285118312133C8039
:10102300D27401F07402120C4FE060077A007B0067
:1010330002113312132B507D8E828F837430F0EAAA
:10104300FEEBFF7413120C4FE0FCA3E0FDEC4D70BC
:10105300087418120C4FE0600B8E828F83742EF08D
:10106300A30EAF837A007B0080118E828F8374304E
:101073001213677413120C4F12133CEA24FF1AEB7A
:1010830034FFFB851082851183121313500B7413E5
:10109300120C4F121D884970D185108285118374FB
:1010A300FFC39CF874FF9DF912131F500302120132
:1010B3007A01021031851082851183121D84C3E4E5
:1010C30098FAE499FB806985080C85090D850A0E59
:1010D300850B0F780C12032EAC0CE50D3395E0F560
:1010E3000EF50F780C1202B67808790C1206609090
:1010F30004A2780C120B067808790C1204E0EC12A7
:101103001361EAF8EBF9E824010AE93400FBE84942
:10111300701E7413120C4F121D8849700874181234
:101123000C4FE0600B8E828F83742EF0A30EAF837F
:101133007413120C4F121313508D9004AA780C12CF
:101143000B067808790C12044540030212017C0156
:10115300EE24FFF8EF34FFF97415120C4FE0F50895
:10116300A3E0F50988828983E0642E6010E02CF007
:10117300643A70077430F07C0180027C00E8FAE97D
:10118300FBEA24FF18EB34FFF9C3E5089AE5099B52
:1011930040D2ECA2E050677402120C4FE06036EECE
:1011A300F8EF800A1212FEE824FF18E934FFF9C3AE
:1011B300E50898E5099950181212EBE0642E70E4E3
:1011C300E824FEF582E934FFF5831212F8F980D79B
:1011D300121E8C801E8E828F83A3AE82AF83EEF8A5
:1011E300EF80061212EB1212F8F9C3E50898E5092D
:1011F3009940F07415120C4F121DA37431F074173B
:10120300120C4FE07005801A1EAF83EE24FFF582A7
:10121300EF34FFF583E0643060EEE0642E70031E6C
:10122300AF837402120C4FE070030212DD121363DA
:10123300A3A98312132B8E828F835014742DF00E67
:10124300E9FF851082851183121DCC121354800689
:10125300742BF00EE9FF7C007D00EE240AFEEF34D0
:1012630000FFEC24010CED3400FD121305120BA357
:10127300EA121361121305120BA312136E4970E2E3
:10128300C3EC9402ED121D3540D8ECFAEDFBC3E438
:101293009CF8E49DF9EE28F582EF39F583E0C0E090
:1012A300C3E49AF8E49BF9EE28F8EF39F9E82CF84F
:1012B300E93DF9E824F5F582E934FFF583D0E0F060
:1012C300EC24FF1CED34FFFDC3EC9401ED121D353E
:1012D30050BCEE24F6FEEF34FFFFEEFAEFFB74038F
:1012E300120C1A7F08020CC7E824FFFAE934FFFB4B
:1012F3008A828B83221212FE18EB22E08882898372
:10130300F022851082851183121DD97A0A7B00226F
:10131300C3E09AA3E09BA2D265D03322C3E098A393
:10132300E099A2D265D03322851082851183C3A3AD
:10133300E09400A2D265D03322E024FFF0A3E0348E
:10134300FFF022F0EAFEEBFF8E828F8322A3E034CC
:1013530000F9851082851183E8F0A3E9F022243097
:101363008E828F83F0A3AE82AF8322851082851194
:101373008312137822E8F0A3E9F0851082851183A4
:10138300E02274F0120C5B74B0120C048510828599
:101393001183121E3E7418120C4FECF0A3EDF0747F
:1013A3000F120C4FE4F0A380227460120C4F121D35
:1013B300747404120C4FE0F97418120C4F121DA32D
:1013C300120C59740F120C4F121D3DF0121DB7FA77
:1013D300121E77120C4FEAF074256A6010E070C990
:1013E300740F120C4F121D7474500212E3121DB7C6
:1013F30064257019851082851183E0240108121376
:10140300507460120C4F121D74792580AB740E1248
:101413000C4FE4F0740D120C4FE4F0740C120C4FEB
:10142300E4F07405120C4FE4F0741E120C4FA88202
:10143300A9837402120C4F80157405120C4FE070CF
:10144300077405120C4FEAF085108285118312137D
:1014530074121D6B121DFEFA24E060DD24FD60177B
:1014630024F860DD24FE600624FD600F8011740CF7
:10147300120C4FE00480D0740D80F5740E80F112CD
:101483001DFE642A705B7462120C4F121E09FB8AE4
:10149300828B83E0FCA3E0FD740A120C4FECF0A3F3
:1014A300EDF0EA24020A0AEB3400FB7462120C4FDB
:1014B300121E36740A120C4F121331501F740A1283
:1014C3000C4F121D74C3E49AFAE49BFB740A120CCA
:1014D3004F121E3E740C120C4FE004F01213558091
:1014E3004A740A120C4FE4F0A3802D740A120C4FB5
:1014F300121D8875F00AA4F8AAF075F00AE9A42A67
:10150300F9E50828F8E439F9E824D0F8E934FFF9D3
:10151300740A120C4F121E9C121E58F5838882E027
:10152300F50874D02508C3940A40C0740C120C4FFC
:10153300E06007740E120C4FE4F0121DB7642E60C6
:10154300030215D0851082851183E0240108A3E0EE
:101553003400F912136E121DA8E0642A702C746211
:10156300120C4F121DBDF8A3E0F988828983E0FEB7
:10157300A3E0FFE824020808E93400F97462120CBE
:101583004F121DF1121E9CF080477E007F008510D4
:1015930082851183121DC674D02508C3940A503165
:1015A300EE75F00AA4FEA8F075F00AEFA428FFE593
:1015B300082EF8E43FF9E824D0FEE934FFFF851054
:1015C30082851183E02401F812135080C17EFF7FCE
:1015D300FF7A00851082851183121D66851082852E
:1015E3001183E0FBA3E0F5838B82E024B46008243D
:1015F300E4600524FC70040A121355121DB7FB1294
:101603001E77120C4FEBF07003021BDB24BB70033D
:10161300021AA124FE7003021A8324EF7003021737
:10162300CD24F570030216D21470030218721470DD
:1016330003021AA1147003021A9F147003021A837F
:1016430024FE700302187224FB6024147003021733
:10165300BD1470030217CD24FD700302170B24FE83
:1016630070030217CD24FD70030217CD021BE7742C
:1016730062120C4F121E30120C4F12135BEAA2E0DF
:10168300740F5033120C4FE0FCA3E0FD3395E0FEE2
:101693007406120C4F121E11ECF0A3EDF0A3EEF042
:1016A300A3F07462120C4F121E18120C4F121DF18C
:1016B300E8F0A3E90213CE120C4F121D8474061234
:1016C3000C4F121E09F5838A82E8F0A3E980D274D5
:1016D30062120C4F121E11E0C0E0741E120C4FD0A8
:1016E300E0F07462120C4F121E18120C4F121DF10F
:1016F30012135B741F120C4FA882A9837412120C6D
:101703004FE8F0A3E9021BFE7462120C4F121E3065
:10171300120C4F12135B7406120C4F121E30120C74
:101723004FE02402FAA3E03400FB7462120C4F1260
:101733001E367402120C4F12135BE849700C7402CC
:10174300120C4F747FF0A37404F0121D3350047E07
:10175300107F277408120C4FE4F0A380087408125A
:101763000C4F121D3DF07402120C4F121D8488821F
:101773008983A3AA82AB837402120C4F121E3E8884
:10178300828983E0600A7408120C4F121D8D40CDCC
:101793007402120C4F121D547412120C4F12135B6D
:1017A3007408120C4F121DCCF97412120C4FE0285E
:1017B300F8A3E039F97402021701740D120C4FE01B
:1017C3006008EE4F70047E017F007462120C4F12AA
:1017D3001E30120C4F121E84120C4FE064707038CE
:1017E3007406120C4F121E26120C4F121E5F120C9F
:1017F3004FE02402121DE8120C4F121DF112135B6D
:101803009004AE120B24741A120C4F120B30740591
:10181300120C4FE4F0021902EAA2E07406501B1204
:101823000C4F121DA3120B247414120C4F120B3005
:101833007406120C4FE024048012120C4F121E2661
:10184300120C4F121E5F120C4FE02402121DE812FD
:101853000C4F121DF1121E84120C4FE0646F7005C1
:101863009004B2809EE0647570969004B680947480
:1018730062120C4F121E30120C4F12135BEAA2E0DD
:1018830074065016120C4F121DA37808120B06741F
:1018930006120C4FE02404F8801B120C4F121DC6D5
:1018A300A3E0F5093395E0F50AF50B7406120C4F26
:1018B300E024020808121DE9120C4F121E6C120CD0
:1018C3004F7808120B159004667808120290402195
:1018D3007405120C4F742DF07414120C4F78081207
:1018E3000B067808120AF57414120C4F7808120BC1
:1018F300159004B6120B24741A120C4F120B307489
:101903004F120C4FA882A9837402120C4F12135B5F
:101913007412120C4F121E6F120C4F7808120B0622
:10192300E5084509450A450B60097411120C4F740B
:101933000180067411120C4FE4F0EE4F7008E0A220
:10194300E040030219F67402120C4F121D9D120C93
:101953004F121E6F120C4F780C120B06741A120CD6
:101963004F7808120B06780C7908120A82746E25D8
:1019730008F58274043509F583E0C0E07402120CA3
:101983004F121DA3D0E0F07414120C4F780C120BFD
:1019930006741A120C4F7808120B06780C79081289
:1019A3000A827414120C4F780C120B157414120C57
:1019B3004F7808120B06E5084509450A450B708662
:1019C300121D33502E740E120C4FE0602674051254
:1019D3000C4FE06004D2F08002C2F0740A120C4F84
:1019E300121D46800E7402120C4F121E50120C4F21
:1019F300121DB07402120C4F121D54744F120C4F6F
:101A0300C082C0837402120C4F121D74D083D08223
:101A1300E582C39AFAE5839BFBC3EA9EEB121D960C
:101A230040C3740D120C4FE07003021BFF741112BC
:101A33000C4FE0A2E04003021BFF7404120C4FE0C2
:101A430064786005E06458701E1212FEE824FF18E3
:101A5300E934FFF97402120C4F121E50120C4F128C
:101A63001DA37430021BFEE0646F6003021BFF744E
:101A730002120C4F121E0464307003021BFF80D449
:101A83007408120C4F7401F0A3E4F07404120C4FA9
:101A9300E024FEF0EE4F700F7E018012E4F0740834
:101AA300120C4FE4F0A3F0121D3350047E067F00A6
:101AB3007462120C4F121E30120C4F12135B740619
:101AC300120C4F121DA3780C120B067406120C4F46
:101AD300E02404121DE8120C4F121E6C120C4F78F6
:101AE3000C120B159004667808120B06780C790813
:101AF30012049450227405120C4F742DF0741412B6
:101B03000C4F7808120B06E50BB2E7F50B741412B1
:101B13000C4F7808120B15740A120C4F121D8474A3
:101B23001E120C4FE58228F8E58339F97402120C72
:101B33004F12135B740D120C4FE0F5087808120D69
:101B4300C87409120C4FE0F5087808120DC8740424
:101B5300120C4F120DD78E088F097808120DC4741A
:101B63000A120C4FE0F9741A120C4F120B241202D2
:101B7300847406120C1A7412120C4F121E3E740E49
:101B8300120C4FE060767405120C4FE06004D2F043
:101B93008002C2F0740A120C4F121D467412120C0A
:101BA3004FC082C0837402120C4F121D84D083D0A5
:101BB30082E0C398F8A3E099F9C3E89EE9121D9661
:101BC300503A7402120C4F121D9D120C4F121E50EC
:101BD300120C4F121DB080C4851082851183121D13
:101BE3005D1213547402120C4F748EF0A37404F03C
:101BF3007412120C4F7491F0A37404F07412120C4B
:101C03004FC082C0837402120C4F121D84D083D044
:101C130082E0C398FEA3E099FF740A120C4F121DD1
:101C23008D500A7408120C4FE4F0A380307405122F
:101C33000C4FE06004D2F08002C2F0740A120C4F21
:101C4300E0C39EF8A3E09FF9A2F0E433FAE89AF820
:101C5300E99400F97408120C4FE8F0A3E9F0740C4E
:101C6300120C4FE0702B80197460120C4F121D7A06
:101C7300120C4F121DA3120C59740F120C4F121E8B
:101C8300927408120C4F121E44120C4F121331504F
:101C9300D77405120C4FE060507460120C4F121D84
:101CA300747405120C4FE0F97418120C4F121DA333
:101CB300120C59802C7460120C4F121D7474021292
:101CC3000C4F121DBDF97418120C4F121DA3120CE8
:101CD300597402120C4F121D667402120C4F121328
:101CE3005B740F120C4F121E92EE24FF1EEF34FF93
:101CF300FFC3121D3550BE740C120C4FE07003026B
:101D030013CF7408120C4F121E44120C4F121331CE
:101D130050030213CF7460120C4F121D7A120C4F32
:101D2300121DA3120C59740F120C4F121E9280D263
:101D3300C3EF9400A2D265D03322E02401F0A3E0E4
:101D4300340022A2F0E433F8E098FEA3E09400FF0D
:101D530022121D5822121D5DF922E024FFF8A3E090
:101D630034FF22E0121D6B222401F8A3E03400F9B2
:101D730022E0FAA3E0FB22E0FAA3E0FB7920741847
:101D830022121DD922121DD9E822C3E09EA3E0121C
:101D93001D96229FA2D265D03322121D58740222AF
:101DA300121DA722E0F8A3E0F583888222121DA763
:101DB3007430F022851082851183121DC122121DF9
:101DC300DFE022121DC1F50822121DD9C3E498F8E1
:101DD300E49922121DDFE0F8A3E0F922E0F8A3E082
:101DE300F583888222F8A3E03400F9746222121D7D
:101DF300F522E0FAA3E0F5838A8222851082851119
:101E030083121DF5E022121DF5E0FAA3E022121D54
:101E1300C1121DA822121DC12402F8A3E03400F947
:101E2300746222121DD6E8FAE9FB741422121DD63D
:101E3300740622E0FCA3E0F5838C82EAF0A3EBF0C6
:101E430022E024FFF0A3E034FFF0740822E8F0A3BB
:101E5300E9F074022212137CF8A3E022EAF0A3EB68
:101E6300F0A3E4F0A3F0740622121DF5E8F0A3E951
:101E7300F0741422851082851183E0240108121E58
:101E8300AAE8F0A3E9F0740422851082851183E0A7
:101E93002401F0A3E03400F0221213782401F81295
:101EA3001EAAE8F0A3E922A3E03400F98510828595
:101EB30011832274F7120C5BE9FEEAF8EBF9E8FAF6
:101EC300E9FB740B2E8A828B83F0900207E0F8A360
:101ED300E0F5838882A3A3A3A3A3E06006786179D6
:101EE30088800478417988E88A828B83A3F0E4E9C7
:101EF300F88A828B83A3A3F0900200E08A828B830B
:101F0300A3A3A3F0900207E0F8A3E0F5838882A3DC
:101F1300A3E0F8A3E0F98A828B83A3A3A3A3E8F049
:101F2300A3E9F08A828B83A3A3A3A3A3A3ECF0A3C7
:101F3300EDF0900207E0F8A3E0F5838882E0F8A3D0
:101F4300E0F98A828B83A3A3A3A3A3A3A3A3E8F0AB
:101F5300A3E9F0790A7F01020CC774F2120C5BEC5F
:101F6300FEEDFF8908A908EAFCEBFD7A097B021262
:101F73000176E9FB7A0080348A0A750B00EE250AA4
:101F8300F582EF350BF583E0C0E08B0A750B008A11
:101F93000C750D00E50A250CF8E50B350DF97409F0
:101FA30028F582740239F583D0E0F00AEAC3950874
:101FB30040C6EB2508F97F06020CC774F7120C5BC9
:101FC3007E7C7F021202421201E87901EEFAEFFBF6
:101FD30012022A8E828F83E0C2E7F08E828F83E023
:101FE300640570528E828F83E0F97A7D7B02120240
:101FF3002A8E828F83A3E0A2E55004D2F08002C22E
:10200300F0A2F0E433900462F07880790288828948
:1020130083A3E0A2E740030220E08E828F83A3A381
:10202300A3E0F8900200E06860030220E090020160
:102033007401F00220E08E828F83E024F590045F28
:10204300F08E828F83E0F97A7D7B0212022A8E82E0
:102053008F83A3E0A2E55004D2F08002C2F0A2F085
:10206300E433900462F08E828F83A3A3A3A3A3A37C
:10207300A3A3E0F8A3E0F990045BE8F0A3E9F090F0
:1020830004607486F0A37402F090045FE0F8339563
:10209300E0F9900460E028F8A3E039F988828983A5
:1020A300E0900463F088828983A3E0A2E750229042
:1020B300045AE0F88E828F83A3A3A3E06860128E94
:1020C300828F83A3E054DF6441700690046474013B
:1020D300F08E828F83A3A3A3E090045AF01201EE43
:1020E3001202487F01020CC774F7120C5BEAFEEB85
:1020F300FF120206E9640170047901806F1201EE98
:10210300900207EEF0A3EFF09004607400F0A37464
:1021130000F09002027401F0900466120B24900206
:1021230003120B30900207E0F8A3E0F5838882A343
:10213300A3A3A3E0F9120212900207E0F8A3E0F5CB
:10214300838882E0FAA3E0FB120218900207E0F80A
:10215300A3E0F5838882A3A3E0FAA3E0FB12021EA7
:102163007A827B0112024E1201E879007F01020C90
:10217300C774F4120C5BEAFEEBFF8C0A8D0B890823
:10218300900202E07003120236E508C3946750051B
:10219300850809800375096785090812025412022C
:1021A30042A908AC0AAD0BEEFAEFFB12017CE9F988
:1021B3007A097B02120224120248120230E96002F9
:1021C3007E01900207E0F8A3E0F5838882A3A3A32E
:1021D300A3A3E0601C9002017400F07A4A7B021210
:1021E30001FA900201E06004740080027401FE8031
:1021F300027E00900202E0700312023CEE70079030
:102203000200E02401F0EEF97F04020CC7C082C093
:1022130083900464E0F9D083D0820200FB74F2124D
:102223000C5B8A088B09890AECFEEDFF1201EE9024
:10223300045FE0F83395E0F9850A0C750D00C3E8F7
:10224300950CE9950DA2D265D033500D90045FE053
:10225300F50C3395E0F50D800C850A8275830085B6
:10226300820C85830D780C120DC4900460E0FCA3EE
:10227300E0FDAA08AB091202727402120C1A900450
:102283005BE0F8A3E0F99002FCE8F0A3E9F0EE4F7D
:10229300602412020CE9F508900463E0F83395E03A
:1022A300F9750900E8C39508F8E99509F98E828F55
:1022B30083E8F0A3E9F09004647400F01201E8905D
:1022C300045FE0F83395E0F9850A08750900C3E86F
:1022D3009508E99509A2D265D033500790045FE0D1
:1022E300F98002A90A7F06020CC7C082C08390024C
:1022F300027401F0120236D083D0820200FB53F342
:10230300FD53FDFD0200FBC082C08378007900020B
:1023130023B5E8FAE9FBEA75F006A4CAACF075F058
:1023230000A42CFC75F006EBA42CFB740F2AF58299
:1023330074043BF583740DF0E8FAE9FBEA75F006E3
:10234300A4CAACF075F000A42CFC75F006EBA42C29
:10235300FB74102AF58274043BF583740AF0E8FADF
:10236300E9FBEA75F006A4CAACF075F000A42CFCF6
:1023730075F006EBA42CFB744B2AF58274043BF531
:1023830083740DF0E8FAE9FBEA75F006A4CAACF031
:1023930075F000A42CFC75F006EBA42CFB744C2AFE
:1023A300F58274043BF583740AF0E82401F8E934F8
:1023B30000F9C3E8940AE99400A2D265D03350032C
:1023C300022315D083D0820200FB74F6120C5B74D7
:1023D300BD120C04900301C082C083851082851155
:1023E30083AC82AD83D083D0827403120B49120174
:1023F300A0803B7403120C4FE5822EF582E5833FE8
:10240300F583E0F91201D6EE2401FEEF3400FFC399
:10241300EE9508EF9509A2D265D03340D690040417
:102423007400F0A37400F07AC87B00120200D2F0AB
:10243300A29030F001B39290790B1202129004042F
:10244300C3E09401A3E09400A2D265D03340D87ACC
:10245300327B00120200900404E0F8A3E0F9E8F9EB
:102463007C047D037A207B2512018EE97A6B7B0441
:1024730012027E7E007F00800F7A027B0012020030
:10248300EE2401FEEF3400FFC3EE94E8EF9403A2C1
:10249300D265D0335091120194E960DD7C007D0058
:1024A30079407403120C4FAA82AB8312019AE9F5A7
:1024B30008750900C3E5089401E5099400A2D265F3
:1024C300D033500302242A7E007F0002241212011B
:1024D300B81201F41202661202601201CA1201BE9E
:1024E3001201D01201B2120206E964017003120153
:1024F300C49004087407F0A37420F090040A740BCA
:10250300F090040B7401F09004067430F0A374256A
:10251300F07A067B04120188E9640170031201C496
:1025230012026C80FEC082C083906189E04460F037
:102533009061FA7409F09061B27415F09061AE7411
:1025430000F012025A1202487900D083D0820200AE
:10255300FBC082C08390046AE0F9D083D08202007A
:10256300FBC082C08375F005E9A424D490618FF089
:10257300D083D0820200FBC082C083EA906174F0F2
:10258300E4EBFA906175F0D083D0820200FBC08245
:10259300C083EA906172F0E4EBFA906173F0D08348
:1025A300D0820200FB74F6120C5B75E1EE7591FDAF
:1025B300780080138808750900EA2508F582EB3551
:1025C30009F583E0F5D908E8C39940E87F02020CD6
:1025D300C7C082C0838011E5D98A828B83F08A8247
:1025E3008B83A3AA82AB8319E9C3940150E9D083F7
:1025F300D0820200FB75E1E9E591A2E150FA759101
:10260300FD79000200FB75E1EC75E1E30200FB7567
:10261300E1EF75E1EC0200FBC082C0839061A3E0AF
:10262300C2E6F0539AFED083D0820200FBC082C080
:10263300839061A3E0D2E6F0439A01D083D0820273
:1026430000FBC082C083A2AFE433F8C2AF9002FFA5
:10265300EAF0A3EBF0E8A2E092AFD083D0820200CD
:10266300FBC082C083906193E0542270F8D083D082
:10267300820200FB0200FB53F4F243FE0D53F5FE0E
:1026830043FF0143900DD2A00200FB75F10043F319
:102693000C53FF3F43868043864075C50943C23BC5
:1026A300C2E943A8840200FB89C1A2E950FCC2E944
:1026B3000200FBC082C083A28B50FCA8C188827534
:1026C3008300AA82AB83C28BD083D0820200FBC07B
:1026D30082C0831201DCEAFAEA9002FEF08051EA3A
:1026E300C0E0900404E02404F8A3E03403F98882F2
:1026F3008983D0E0F0900404E02401F0A3E03400E7
:10270300F01201DCEAFA740D6A6012900404C3E06B
:102713009400A3E09401A2D265D033401390040443
:10272300E02404F8A3E03403F9888289837400F079
:10273300740A6A70AAD083D0820200FBC082C0836D
:1027430079001201ACE9601079011201A679001237
:1027530001ACE960031201C479001201A6D083D051
:10276300820200FBEBC313FBEA13FAEAF8EBF9E886
:1027730024FFFAE934FFFBE849601300000000007E
:1027830000000000000000000000000080DD0200E7
:10279300FB74F7120C5BEAFEEBFFEEF8EFF9E824AB
:1027A300FFFEE934FFFFE84960097AE87B03120181
:1027B300FA80E77F01020CC7E5C65480F853BEFBDD
:1027C300E59DA2E550FAE59DA2E240F4007401699B
:1027D3007007744948F5C68005E9700288C6E5C6E6
:1027E300F8E59EFAE86A70F943BE040200FBE9F8D3
:1027F300E59EA2E640047901801CE8700553C67F7C
:102803008008740168700343C680E5C6F9E59EFA43
:10281300E96A70F979000200FB74F6120C5BE9FABD
:102823007B00120E047F02020CC774F6120C5B7459
:10283300FE120C04740C120C4FA882A9838510821B
:10284300851183E8F0A3E9F08510828511838582E1
:10285300088583097808120DC4E4F508F50978089A
:10286300120DC47C787D0212028A7404120C1A744D
:1028730002120C1A80AF74F6120C5B740A120C4F1E
:10288300E0FEA3E0FFEAF8EBF980188C828D83E089
:1028930088828983F0A3A882A9838C828D83A3ACC9
:1028A30082AD838E088F09E50824FF1EE50934FFF6
:1028B300FFE508450970D47F02020CC753F3DF43D9
:1028C300FD20D2850200FB53F4FC43FE03D290D2D9
:1028D300910200FB53F3DF53FDDF0200FBD2AF0293
:0928E30000FBC2AF0200FB80FE05
:04000005000000E314
:00000001FF
